:020000040800F2
:10000000D809002091010008D50A00087B0A0008E1
:10001000D10A0008690500083F160008000000002A
:10002000000000000000000000000000291100088E
:1000300049060008000000003D0E00084D120008AF
:10004000AB010008AB010008AB010008AB010008E0
:10005000AB010008AB010008AB010008AB010008D0
:10006000AB01000835070008AB010008AB01000830
:10007000AB010008AB010008AB010008AB010008B0
:10008000AB010008AB010008AB010008AB010008A0
:10009000AB010008AB010008AB010008AB01000890
:1000A000AB010008AB010008AB010008AB01000880
:1000B000AB010008BD120008AB010008AB0100084D
:1000C000AB010008AB010008AB010008AB01000860
:1000D000AB01000841140008AB010008AB010008A7
:1000E000AB010008AB010008AB01000800F002F80A
:1000F00000F03FF80AA090E8000C82448344AAF183
:100100000107DA4501D100F034F8AFF2090EBAE880
:100110000F0013F0010F18BFFB1A43F0010318473B
:10012000843C0000A43C0000103A24BF78C878C189
:10013000FAD8520724BF30C830C144BF04680C60ED
:10014000704700000023002400250026103A28BF35
:1001500078C1FBD8520728BF30C148BF0B60704739
:10016000782900F04380002070471FB51FBD10B5EF
:1001700010BD00F0A9F91146FFF7F7FF02F086FC69
:1001800000F0C7F903B4FFF7F2FF03BC01F032FB44
:100190000948804709480047FEE7FEE7FEE7FEE71B
:1001A000FEE7FEE7FEE7FEE7FEE7FEE70448054957
:1001B000054A064B704700005D120008ED0000087C
:1001C000D8030020D8090020D8050020D805002039
:1001D000704700000FB4044910B503AA029800F05C
:1001E00059F910BC5DF814FBCC00002070B5044632
:1001F0000D4621461068AFF300802188090502D51D
:100200000F4A7A4402E00E4A7A440E32002104F189
:10021000240305E000F00F060009965D5E54491CBA
:100220000028F7D120780023000704D5702D02D0D4
:1002300009B1022311322046BDE8704000F0B9B880
:10024000743B00002DE9F0474FF0000A8946044650
:10025000C0F820A02046E1688847002876D02528ED
:1002600006D0D4E901219047206A401C2062F1E7C2
:10027000E168204600258847C4F81CA006460027F0
:10028000C4F818A02A2E09D0304601F0ACFA38B3D1
:1002900004EB8708303EC8F8186019E059F8041BD1
:1002A000204604EB87029161E1688847012F0646EA
:1002B00018D1E069002820DA25F020051DE0D8F8E3
:1002C000180000EB800006EB40003038C8F818003A
:1002D0002046E1688847064601F085FA0028EED1FD
:1002E000012F0AD02E2E08D12046E16888477F1CB6
:1002F0000646022F45F02005C4DBA069002803DA7A
:10030000404245F00105A061E80701D025F0100545
:10031000B6B1A6F14100192802D8203645F400658F
:100320004A463146204625604D46FFF719FF58B131
:10033000012806D0ED1D25F0070000F1080989E726
:1003400004E005F1040985E730468AE7206ABDE844
:10035000F08740EA010310B59B070FD1042A0DD3A3
:1003600010C808C9121F9C42F8D020BA19BA884296
:1003700001D9012010BD4FF0FF3010BD1AB1D307D5
:1003800003D0521C07E0002010BD10F8013B11F80B
:10039000014B1B1B07D110F8013B11F8014B1B1B34
:1003A00001D1921EF1D1184610BD704770477047B9
:1003B00070472DE9F0470D4699469246044600F1F4
:1003C00024080168880604D5E06921F01001216045
:1003D00000E00120A84201DD471B00E00027A169E1
:1003E0007A1902EB0900081AA0612078C00602D42D
:1003F0002046AFF30080002608E0D4E901211AF876
:1004000006009047206A401C761C20624E45F4DBB3
:100410002078C0060AD52046AFF3008006E0D4E974
:10042000012130209047206A401C2062381EA7F12D
:100430000107F4DC07E0D4E9012118F80500904732
:10044000206A401C2062281EA5F10105F3DC20462D
:10045000AFF300802078000602D50220BDE8F087C7
:100460000120FBE701694A1C02610878704700B56A
:100470008FB0CDE901310021059105497944CDE9DD
:10048000031011466846FFF7DDFE0FB000BD000007
:10049000E5FFFFFF074B70B50D467B44FFF7E7FF15
:1004A0000446284600F008F810B14FF0FF3070BD48
:1004B000204670BD7B250000007B00F08000704767
:1004C00000487047780300207546FFF7F9FFAE46F5
:1004D00005006946534620F00700854618B020B550
:1004E000FFF764FEBDE820404FF000064FF0000724
:1004F0004FF000084FF0000B21F00701AC46ACE8CC
:10050000C009ACE8C009ACE8C009ACE8C0098D4638
:10051000704710B50446AFF300802046BDE8104098
:10052000FFF730BE08B50320ADF8000048208DF875
:10053000030003208DF802006946094800F0BCF969
:100540000120ADF800006946064800F0B5F9032126
:10055000034800F090FA0121024800F08AFA08BD31
:10056000001001400008014000BFFEE72DE9F04FF8
:1005700087B081460C4600BF002005902BE04FF06D
:10058000000A22E00AF1010009EBC000D0E900B343
:1005900009EBCA0003C85A46CDE9020102F0A4FFE4
:1005A00011D209EBCA00D0E900780AF1010009EB89
:1005B000C00103C909EBCA0203C20AF1010009EB39
:1005C000C000C0E900780AF1010A601E5045D9DC7C
:1005D0000598401C0590601E05998842CFDC204696
:1005E00004EBD0714910A4EB4101012906D104EBC1
:1005F000D071491009EBC10160C920E0A34604EBAA
:10060000DB70401009EBC00103C902AA13C204EB5E
:10061000D4704010401E09EBC00003C8CDE90001B2
:10062000DDE9022302F086FB05460E4600224FF06C
:1006300080432846314602F031FC05460E462846E6
:10064000314607B0BDE8F08F704700002DE9F04754
:1006500006460F46154699460024A0465BE0782ED4
:1006600005DD0026B81CC7B2082F00DB55E0285D69
:1006700030280EDB285D39280BDC285DA0F130081E
:10068000274800EB081208233946304600F09CFA50
:100690003DE0285D41280EDB285D5A280BDC285DF3
:1006A000A0F141081F4800EB0812082339463046E4
:1006B00000F08AFA2BE0285D61280EDB285D7A289D
:1006C0000BDC285DA0F14708164800EB0812082350
:1006D0003946304600F078FA19E0285D3A2806D10C
:1006E0000823114A3946304600F06EFA0FE0285DC3
:1006F0002E2806D108230D4A3946304600F064FA08
:1007000005E008230A4A3946304600F05DFA06F152
:100710000800C6B2641C4C45A1DB00BFBDE8F087F1
:100720006A3800080A390008FA3700082A38000831
:100730004A38000810B500BF064800688047082105
:10074000054800F08DF90128F6D0082000F006F8E1
:1007500010BD000030000020001001400149086079
:100760007047000014040140014600200022044BA1
:100770001B6803EA01020AB1012000E00020704773
:1007800000040140002123498279002A3AD00A4618
:10079000126803689A430B461A600A1D12680368C0
:1007A0009A430B1D1A60027911440A6803681A43C0
:1007B0000A60184A0832126803689A43154B0833D6
:1007C0001A601A1D126803689A43124B0C331A60A0
:1007D0004279102A0ED11A1F126803681A430D4B72
:1007E00008331A601A1D126803681A43094B0C3348
:1007F0001A600DE00749427911440A6803681A43F8
:100800000A6005E0027911440A6803689A430A60A5
:10081000704700000004014008B501217D2000F070
:100820002FFB4FF6FF70ADF8000000208DF803009D
:1008300069460C4800F040F869460B4800F03CF867
:1008400069460A4800F038F86946094800F034F86B
:100850006946084800F030F80021012000F0B8F89F
:10086000002008BD00080140000C014000100140BC
:10087000001401400018014030B500228B071C0F06
:100880000F2303FA04F20B4B8C1053F824309343DC
:10089000084C8D1044F8253023468C1053F8243032
:1008A0008C07240F00FA04F42343024C8D1044F803
:1008B000253030BD080001402DE9F04102460025F9
:1008C0000026002000230024002791F803C00CF02C
:1008D0000F0591F803C00CF0100CBCF1000F03D011
:1008E00091F802C04CEA050591F800C0BCF1000F78
:1008F00031D0146800202BE04FF0010C0CFA00F30B
:10090000B1F800C00CEA03069E4220D183004FF0EC
:100910000F0C0CFA03F7BC4305FA03FC4CEA040481
:1009200091F803C0BCF1280F06D14FF0010C0CFA6E
:1009300000FCC2F814C00AE091F803C0BCF1480FF3
:1009400005D14FF0010C0CFA00FCC2F810C0401C9D
:100950000828D1D31460B1F800C0BCF1FF0F34DD1A
:10096000546800202EE000F1080C4FF0010808FA4E
:100970000CF3B1F800C00CEA03069E4221D18300BB
:100980004FF00F0C0CFA03F7BC4305FA03FC4CEADA
:10099000040491F803C0BCF1280F05D100F1080C44
:1009A00008FA0CF8C2F8148091F803C0BCF1480FA3
:1009B00007D100F1080C4FF0010808FA0CF8C2F852
:1009C0001080401C0828CED35460BDE8F0810000A0
:1009D000F0B50A46002300240021002500F000465F
:1009E000B6F1004F02D11D4EF16901E01B4E716856
:1009F000C0F3034583B200F44016B6F5401F08D19A
:100A000021F07061154E766826F07066134F7E6097
:100A100012E000F48016B6F5801F06D1032606FA10
:100A200005F4A14341F0706106E0460D360103FA7A
:100A300006F6B14341F0706122B1460D360103FA6A
:100A400006F6314300F00046B6F1004F02D1034EE6
:100A5000F16101E0014E7160F0BD00000000014055
:100A60000246002093680B400BB1012000E00020FB
:100A70007047416170470161704700BFFEE70000A9
:100A800008B50220ADF8000010208DF80300032007
:100A90008DF8020069460C48FFF70EFF02210A4854
:100AA000FFF7E9FF0420ADF8000010208DF80300E7
:100AB00003208DF8020069460448FFF7FDFE04217B
:100AC0000248FFF7D8FF08BD0008014000100140B0
:100AD00000BFFEE7704700001FB50820ADF80C000E
:100AE00028208DF80F0003A91548FFF7E5FE032124
:100AF0000220FFF7C1FE0820019000208DF80800B9
:100B000008208DF8090001208DF80A0001A8FFF7E0
:100B100039FE4FF4407000F04DF809208DF80000C8
:100B20000F208DF8010000208DF8020001208DF8C3
:100B30000300684600F006F8002004B010BD000075
:100B40000010014070B5002100230F22C47804B3C7
:100B5000154C246804F4E064C4F5E064210AC1F192
:100B60000403CA40447804FA03F184781440214312
:100B700009010E4C0678A155047804F01F050124E4
:100B8000AC4005786D11AD0005F1E025C5F80041D8
:100B900009E0047804F01F050124AC40044D0678F8
:100BA000761145F8264070BD0CED00E000E400E051
:100BB00080E100E002490143024A116070470000F1
:100BC0000000FA050CED00E02DE9F04180460F46EB
:100BD00016461D463946404600F0BEF8002404E0A3
:100BE000305D00F0FBF8601CC4B2AC42F8DB781C4E
:100BF000C1B2404600F0B0F8002405E06119705C15
:100C000000F0ECF8601CC4B2AC42F7DBBDE8F08148
:100C100070B50646002415E004F1B001C8B200F03A
:100C2000ADF8002000F0AAF8102000F0A7F8002589
:100C300004E0304600F0D2F8681CC5B2802DF8DB25
:100C4000601CC4B2082CE7DB70BD000008B50121B0
:100C5000082000F015F94FF43340ADF800001020E3
:100C60008DF8030003208DF8020069463748FFF72E
:100C700023FE4FF433413548FFF7FDFE0120344990
:100C80000860642000F002FE00203249C1F8A4018F
:100C9000642000F0FBFD01202D490860AE2000F02B
:100CA0006DF8002000F06AF8102000F067F840208E
:100CB00000F064F8812000F061F8CF2000F05EF8C9
:100CC000A12000F05BF8C82000F058F8A62000F042
:100CD00055F8A82000F052F83F2000F04FF8D3203C
:100CE00000F04CF8002000F049F8D52000F046F85C
:100CF000802000F043F8D92000F040F8F12000F007
:100D00003DF8DA2000F03AF8122000F037F8DB2046
:100D100000F034F8402000F031F8202000F02EF8E8
:100D2000022000F02BF88D2000F028F8142000F0AD
:100D300025F8A42000F022F8A62000F01FF8AF202C
:100D400000F01CF80020FFF763FF08BD000C014015
:100D5000A48121420080214230B504460D4605F1B0
:100D6000B001C8B200F00AF8102141EA141000F0F6
:100D700005F804F00F0000F001F830BD0821002252
:100D8000144B1A60144BC3F8B021124B14331A6081
:100D900015E000F0800222B101220E4B1C331A60D4
:100DA00003E000220B4B1C331A600122094B143361
:100DB0001A600022084BC3F8B4214206100E0A1E26
:100DC000A1F10103D9B2E4D10122024B10331A6020
:100DD00070470000A08121420080214208210122A9
:100DE000144B1A600022144BC3F8B021114B14337A
:100DF0001A6015E000F0800222B101220D4B1C3375
:100E00001A6003E000220B4B1C331A600122094BCD
:100E100014331A600022084BC3F8B4214206100EA6
:100E20000A1EA1F10103D9B2E4D10122014B103312
:100E30001A607047A0812142008021427047000063
:100E400029B1064AD2690243044BDA6104E0034A3D
:100E5000D2698243014BDA61704700000010024002
:100E600029B1064A12690243044B1A6104E0034A9D
:100E700012698243014B1A61704700000010024062
:100E800029B1064A92690243044B9A6104E0034A7D
:100E900092698243014B9A61704700000010024042
:100EA00029B1064AD2680243044BDA6004E0034ADF
:100EB000D2688243014BDA607047000000100240A4
:100EC00030B500210022002400232D4D6D6805F06F
:100ED0000C0121B1042905D0082923D105E0294DB1
:100EE000056022E0274D05601FE0254D6D6805F483
:100EF0007012234D6D6805F48034022505EB924293
:100F00001CB9214D554305600BE01D4D6D6805F47E
:100F100000351DB11C4D5543056002E0194D554388
:100F2000056002E0174D056000BF00BF144D6D68FD
:100F300005F0F0010909154D6B5C0568DD40456061
:100F40000F4D6D6805F4E061090A104D6B5C456852
:100F5000DD4085600A4D6D6805F46051C90A0B4D8E
:100F60006B5C4568DD40C560054D6D6805F440412A
:100F7000890B074D6B5CC568B5FBF3F5056130BDAA
:100F80000010024000127A0000093D001800002005
:100F90002800002001460020044A10884FF6C7723E
:100FA00010400843014A10807047000000300140A3
:100FB00021B1028842F04002028004E002884FF62C
:100FC000BF731A400280704700B587B0294800F00F
:100FD00055F80020ADF808004FF48270ADF80A0013
:100FE0000020ADF80C00ADF80E00ADF810004FF485
:100FF0000070ADF812001020ADF814000020ADF81C
:1010000016000720ADF8180002A91A4800F062F88F
:10101000A020ADF8040018208DF8070003208DF8FB
:10102000060001A91448FFF747FC4020ADF8040072
:1010300048208DF8070001A90F48FFF73DFC10205C
:10104000ADF804008DF8070003208DF8060001A913
:101050000948FFF731FC0021064800F059F801214A
:101060000448FFF7A5FF10210348FFF704FD002007
:1010700007B000BD003001400008014010B5044633
:101080001148844208D101218014FFF709FF002193
:10109000A014FFF705FF16E00C48844208D1012197
:1010A0000014FFF7DDFE00212014FFF7D9FE0AE04F
:1010B0000748844207D10121C013FFF7D1FE002168
:1010C000E013FFF7CDFE10BD0030014000380040B6
:1010D000003C004010B50022028802F441520B8807
:1010E0004C8823438C882343CC8823430C89234397
:1010F0004C8923438C892343CC8923431A430280A0
:10110000838B4FF2FF74234083830B8A038210BDCD
:1011100021B1828842F00402828004E082884FF686
:10112000FB731A4082807047704710B500F002F8D8
:1011300010BD00000CB500200190009033480068FD
:1011400040F480303149086000BF3048006800F446
:10115000003000900198401C0190009818B9019847
:10116000B0F5A06FF1D12948006800F4003010B14B
:101170000120009001E0002000900098012843D158
:101180002348006840F010002149086008460068C4
:1011900020F0030008600846006840F00200086084
:1011A0001A4840681949486008464068486008463F
:1011B000406840F4806048600846406820F47C1035
:1011C00048600846406840F4E810486008460068F7
:1011D00040F08070086000BF0C48006800F00070AC
:1011E0000028F9D00948406820F00300074948600A
:1011F0000846406840F00200486000BF034840686D
:1012000000F00C000828F9D10CBD000000100240CD
:10121000002002400146087A412801D1487A7047EF
:101220000020FCE7042808D14FF0E021096941F0D3
:1012300004014FF0E022116107E04FF0E02109695D
:1012400021F004014FF0E02211617047024800686C
:10125000401C0149086070471400002010B5134875
:10126000006840F0010011490860084640681049D4
:1012700008400E494860084600680E4908400B497E
:1012800008600846006820F480200860084640682E
:1012900020F4FE0048604FF41F008860FFF745FF10
:1012A0004FF000600449086010BD000000100240CB
:1012B0000000FFF8FFFFF6FE08ED00E010B5012189
:1012C000054800F050F830B10121034800F03CF827
:1012D00001200249087010BD00040040C800002031
:1012E0007FB505460C4601210220FFF7A9FDADF8A8
:1012F0000850ADF804400020ADF80A00ADF8060033
:1013000001A90F4800F04AF8012211460C4800F0EC
:101310003BF81D208DF8000000208DF8010003200F
:101320008DF8020001208DF803006846FFF70AFCE3
:101330000121034800F00BF80020024908707FBD2E
:1013400000040040C8000020CA430282704721B157
:10135000028842F00102028004E002884FF6FE7328
:101360001A400280704730B5024600200023002456
:10137000158A05EA0103958905EA010413B10CB148
:10138000012000E0002030BD1AB183890B43838126
:1013900002E083898B43838170470000002202882A
:1013A0001D4B98420ED01D4B98420BD0B0F1804F90
:1013B00008D01B4B984205D01A4B984202D01A4BCA
:1013C000984204D14FF68F731A404B881A43174B3B
:1013D000984207D0164B984204D04FF6FF431A406C
:1013E000CB881A4302808B8883850B8803850A4B40
:1013F00098420BD0094B984208D00E4B984205D02A
:101400000D4B984202D00D4B984201D10B7A0386C6
:101410000123838270470000002C0140003401400A
:101420000004004000080040000C00400010004094
:1014300000140040004001400044014000480140C9
:1014400010B540F225510C4800F039F898B10B481E
:10145000007858B1084800F0EDF8C1B208480278A9
:101460000078401C064B18700648815440F2255104
:10147000014800F009F810BD00380140D0000020FC
:10148000D10000204B02002010B50022002340F6BE
:101490006A14A14200D100BF0A1201249440A3B2F1
:1014A000DC43048010BD21B1828942F40052828164
:1014B00004E082894DF6FF731A408281704770B54F
:1014C0000246002400230025002040F66A16B1429F
:1014D00000D100BFC1F3421501F01F03012606FA37
:1014E00003F3012D02D19689334006E0022D02D18B
:1014F000168A334001E0968A33400C12012606FA20
:1015000004F41688344013B10CB1012000E000202F
:1015100070BDF0B50346002400260025002040F6EB
:101520006A17B94200D100BF1846C1F3421401F056
:101530001F06012707FA06F5012C01D10C3004E043
:10154000022C01D1103000E014301AB107682F438B
:10155000076002E00768AF430760F0BD2DE9F04780
:1015600086B005460E460024A24600BFA1460027CD
:10157000B08900B100BF2F462C8A4CF6FF700440A2
:10158000F08804432C82AC894EF6F3100440B088F6
:1015900031890843718908430443AC81AC8A4FF612
:1015A000FF400440B0890443AC8201A8FFF788FCE7
:1015B0001F48874202D1DDF810A001E0DDF80CA041
:1015C000A88900F4004040B10AEBCA0000EB0A1001
:1015D00031684900B0FBF1F807E00AEBCA0000EB04
:1015E0000A1031688900B0FBF1F86420B8FBF0F014
:1015F00004012009642101FB1089A88900F400403E
:1016000040B1322000EBC900B0FBF1F000F0070060
:10161000044308E0322000EB09106421B0FBF1F034
:1016200000F00F0004432C8106B0BDE8F0870000F5
:101630000038014001468888C0F30800704700BFA9
:10164000FEE710B5002202212C2001F06DF90222E4
:1016500011462C2001F068F910BD10B504466D222A
:1016600040F606012E2001F05FF93CB140F207621E
:1016700041F606012E2001F032F906E041F2076240
:1016800041F606012E2001F02AF910BD10B5002008
:1016900000F006F800220421362001F020F910BDE8
:1016A00038B504466B4602220021362000F0B2FF16
:1016B0000F2C5FD2DFE804F012081B5E5E5E5E2432
:1016C000335E5E40474E570000208DF800009DF8C5
:1016D000010000F0FE008DF801004CE09DF80000D4
:1016E00000F0FC0040F001008DF8000043E09DF8A0
:1016F000000000F0FC0040F002008DF800003AE02D
:101700009DF8000000F0B30040F048008DF80000A4
:101710009DF8010040F080008DF801002BE09DF85D
:10172000000000F0B3008DF800009DF8010000F00B
:101730007F008DF801001EE09DF8010040F00200DE
:101740008DF8010017E09DF8010000F0FD008DF814
:10175000010010E09DF8000000F0CF0040F02000F4
:101760008DF8000007E001208DF8000003208DF8BF
:10177000010000E000BF00BF6B46012200213620BF
:1017800001F0DCF80DF1010301221146362001F0D1
:10179000D5F838BD10B50E20FFF782FF4FF4004298
:1017A00006212D2001F09BF8012000F025F80120F2
:1017B000FFF776FF10BD70B50446224604212D20A8
:1017C00001F08DF8032206212D2001F0ADF8002252
:1017D00006212D2001F0A8F80A212D2000F0F3FEAB
:1017E0000546284670BD30380A2801D201207047CE
:1017F0000020704700BF704700B50146084601F061
:10180000FBF900BD014651B1092001228240430984
:101810009B0003F1E023C3F8002100BF00BF704725
:1018200010B50920FEF7A0FF044644B109200121AC
:101830008140044A430942F8231000BF00BF2046FC
:1018400010BD000080E100E010B56FF00400FFF76C
:10185000E9FC0A4800680A49B0FBF1F00949087040
:101860000846007800EB4001C1EBC0104FF6FF7155
:1018700001EAC0000449088010BD000000000020FB
:1018800000127A00D2000020D40000200146114A44
:1018900012884A434FF0E0235A6100229A611A46A7
:1018A000126942F001021A6100BF4FF0E022106994
:1018B00000F001021AB100F48032002AF5D04FF096
:1018C000E022126922F001024FF0E0231A610022A7
:1018D0009A617047D40000202DE9F04100221F4B8F
:1018E0001F4903C901F026FA064601F02FFC044601
:1018F000642094FBF0F01B498872642094FBF0F1A3
:1019000000FB11401749C8721748007888701648C4
:101910000078401C14490870144800781149C871B7
:1019200000220E2001F03EF8002211460E2001F0A8
:101930004DF8002000F08AFF05466DB900BF002178
:101940000F2000F040FE00F080000028F7D0802239
:1019500000210F2000F0D4FFBDE8F0810000E03F3F
:10196000C00000207B0000209500002044000020E3
:101970002DE9F04F93B001F073F86D4A03C201F006
:1019800059F86C4A03C211A96B4801F035F810A947
:101990006948001D01F030F80FA96748083001F0D0
:1019A0002BF8664800680E90614800680D90614809
:1019B00000680C90DDE91012881A01F048FC04461A
:1019C0000D46DDE90C12881A01F041FC06460F466F
:1019D000DDE90F12881A01F03AFC80468946DDE9FC
:1019E0000D12881A01F033FC82468B4632463B4684
:1019F0002046294601F09EF942464B46CDE90001BA
:101A000001F098F952465B46CDE9020101F092F9E6
:101A100052465B46CDE906014046494601F066FC68
:101A200032463B46CDE902012046294601F05EFCE4
:101A3000CDE90001DDE9022301F08CFDCDE90401CF
:101A4000DDE9062301F02AFACDE9080101F06CFE78
:101A5000CDE90A01DDE90A0101F0A8FB384A394B5A
:101A6000CDE9080101F042FC374A03C24FF0985219
:101A7000364B354903C901F039FC0022344BCDE91E
:101A8000080101F033FC334A03C2324903C9324A28
:101A90001278C2EBC202314B03EBC20292F8303033
:101AA0002D4A1278C2EBC202DFF8B0C00CEBC202C2
:101AB00092F83020521CDFF8A0C09CF800C0CCEB9C
:101AC000CC0CDFF898E00EEBCC0C8CF83020224ADE
:101AD0001278C2EBC202F4460CEBC202083202EBEF
:101AE000C30203C21C480078C0EBC000614601EB92
:101AF000C00090F83000052809DD0020164909785B
:101B0000C1EBC101624602EBC10181F8300012490C
:101B10000978C1EBC101114A02EBC10101F10800D2
:101B20000521FEF723FD0B4A03C213B0BDE8F08F79
:101B3000A8000020B000002032020020A0000020F9
:101B4000FA48CE3B1835B13DB800002019DDB1414F
:101B500000005940C0000020450000201001002076
:101B600010B54FF4814200210F2000F0C9FE002182
:101B7000102000F028FD00F07F04232C04D8A1B22F
:101B80000022034800F078FD00200149887010BD54
:101B90002802002010B54FF4804200210F2000F0F1
:101BA000AFFE0021102000F00EFDC0F30904B4F5D3
:101BB000806F04D8A1B20022034800F05DFD002030
:101BC0000149887010BD00002802002010B500F007
:101BD00031FF154A03C21448D0E90020134BD21834
:101BE00040F10000010641EA1224204600F09BFD6E
:101BF00040F2DC5000F0A7FD41F2CC0000F0BEFD49
:101C00000B4800780B4988700B480078C871002297
:101C10000E2000F0C7FE012200210E2000F0D6FEAB
:101C2000032000F013FE10BDA00000200000641986
:101C300095000020530000204400002000F00EF921
:101C400001216EA0FEF7C6FA774800F089F944F248
:101C5000340000F08AFD44F2340000F0BFFD08209B
:101C600000F069FD41F61F4140F2E730FFF738FB15
:101C7000C2E0002000F082FD002000F01AFD00BF4D
:101C800000210F2000F09FFC684908606849084067
:101C90000028F5D06548008800F4804000287DD0F9
:101CA000FFF778FF092263496348FEF752FB0028DB
:101CB00075D100256048FFF7ADFA6049087000242F
:101CC00035E0C4EBC4005E4911F830005B49097887
:101CD000884209D1C4EBC400594901EBC00090F817
:101CE00031505848047027E05748007884421CD18E
:101CF0005248007854490978C1EBC101504A02F8B2
:101D0000310000204F490978C1EBC10102EBC1014C
:101D100081F830004C4800784A4908704A480078F9
:101D2000401C49490870012506E0601CC4B24648C1
:101D30000078401C8442C4DB00BF8DB3FFF746FF30
:101D4000401C00B958E000BF00210F2000F03BFC10
:101D500036490860364908400028F5D03B480078ED
:101D6000401C3A4908703148008800F48040F0B1C6
:101D7000FFF7F6FE314800782F49487209223449AE
:101D80002D48FEF7E6FA58B9FFF7F2FDFFF7A4FD7C
:101D900000202C490978C1EBC10102E00FE015E0F9
:101DA0000CE0274A02EBC10181F8310006E0294A24
:101DB00000210F2000F0A4FD00F0A9FC06E0254A58
:101DC00000210F2000F09CFD00F0A1FC22480078CB
:101DD00088B10021204A1170002009E00121C0EBE8
:101DE000C002174B03EBC20282F83110411CC8B28B
:101DF0000528F3DB00BF00BF3BE700004E6F7720F4
:101E000054414728534E3A20307825782920776F5F
:101E1000726B696E6720617320524553504F4E4478
:101E200045522E0D0A0D0A003800002098000020AF
:101E300000D0272447000020280200204400002072
:101E400010010020450000204600002095000020E1
:101E50006100002000902724C800002010B54FF436
:101E600080712948FEF705FE284800F039FE4FF43E
:101E700000612748FEF7FDFD80212348FEF7FBFDAA
:101E800024A0FEF7A7F900F08FFE00F0BFFE0120AE
:101E900000F0BEF9401C00BB22A0FEF79BF907230F
:101EA00025A200210846FEF7D1FB15E001202449B8
:101EB00008604FF4FA70FFF7E9FC00202149C1F8EF
:101EC00088014FF4FA70FFF7E1FC00F09DFB044637
:101ED00021461DA0FEF77EF9E8E705231DA200219B
:101EE0000846FEF7B3FB00F08FFB0446214616A020
:101EF000FEF770F900F085FE00201149086001200E
:101F00001649C1F8840110BD0010014015240008D5
:101F1000000C014068656C6C6F2064776D31303067
:101F200030210A0064776D3130303020696E697479
:101F3000206661696C210A004661696C6564000075
:101F4000880122420000224252656164793A257874
:101F50000A0000005265616479000000000021421F
:101F60002DE9F05F04464FF00009CA4625786079F4
:101F7000854931F810806078401EC6B2042D01D02A
:101F8000072D01D1012000E000208346E07950B9FF
:101F90007E480068006940F480007C490968086157
:101FA0004FEAE80807E079480068006920F48000FB
:101FB000764909680861207A74490968887273480B
:101FC0000068006920F440307049096808616F4872
:101FD00000680069217A4FF4403202EA0141084367
:101FE0006A4909680861694800680021026904209B
:101FF00000F086FC424642F604012E2000F06FFC01
:102000003046FFF72AFB6248405D624951F82020C4
:1020100007212B2000F074FC5D48405D5E490A5C9E
:102020000B212B2000F080FC5C4810F80B200B21CA
:10203000282000F079FC5648405D594951F820208D
:102040000C21282000F05CFCE079564901EB80006F
:10205000A17930F811200221272000F040FC5248DD
:1020600030F816200421272000F039FCE07928B947
:1020700064220621272000F032FC17E0A078042813
:102080000AD110220621272000F029FC1022262147
:10209000272000F049FC09E020220621272000F03B
:1020A0001EFC28222621272000F03EFC3F4800EBA2
:1020B0000610E17850F821200821272000F020FCAC
:1020C000608910B941F24100608162892021272096
:1020D00000F005FC36480C210268232000F010FCBB
:1020E0003348001D30F816200421232000F0F7FBB0
:1020F000A07950B1E0792F490A5C0021212000F03D
:1021000013FC4FF003094FF0010A05F00F00F02116
:1021100001EA0511084361784FF4402202EA814147
:102120000843910001EA095108434FF4003101EAE4
:102130004A41084321794FF0F86202EA815108438D
:102140006179520102EAC16140EA01073A46002181
:102150001F2000F0D5FBA078617808430004E179E6
:1021600040EA413009490968C86008480068002110
:10217000C268082000F0C4FB422200210D2000F0BC
:10218000D3FBBDE8F09F0000483D00082C00002074
:10219000CC3C0008EC3C0008043D00080A3D000867
:1021A000D43C0008183D0008243D0008283D0008E4
:1021B0000C3D0008143D000870B500210E2000F011
:1021C00002FA0546FFF72CFB0446002211460E20BA
:1021D00000F096FB402200210D2000F0A5FB0A4AEA
:1021E00000210F2000F08CFB00F066FB2A46002146
:1021F0000E2000F085FB2046FFF704FB002003497A
:102200000968487570BD0000F8FF27242C000020E5
:102210002DE9F04104460025002700207B4909688C
:1022200008757A490968487578490968C882774904
:102230000968886275490968C86274490968086351
:1022400072490968486300F0DFF97149884202D099
:102250008817BDE8F08104F0020008B900F0D2FA56
:1022600004F0020010B104F0F80010B90020FFF7EC
:1022700017FA04220021242000F056FB04F002008B
:1022800098B90420FFF797FA0746F8B2E0B10222A6
:1022900012212D2000F048FB5C480068C08A40F401
:1022A00080505A490968C8820EE03021282000F089
:1022B0008AF9B0F1883F07D054480068C08A40F4DA
:1022C000805052490968C88204F0020028B104F025
:1022D000020058B104F0080040B11E20FFF76BFA6D
:1022E00085B2280A49490968C87203E000204749B5
:1022F0000968C87204F0020030B905F01F0000B987
:102300001025E8B200F072FA04F0100030B1062097
:10231000FFF751FA3D490968086003E000203B4996
:102320000968086004F0200030B10720FFF743FA85
:1023300036490968486003E000203449096848606C
:1023400004F0400030B10820FFF735FA2F49096842
:10235000087203E000202D490968087204F080002B
:1023600030B10920FFF727FA28490968487203E0CD
:10237000002026490968487204F00200D8B904F028
:10238000010050B1FFF706FA20480068C08A40F407
:1023900000601E490968C88218E00521362000F057
:1023A000FFF806464FF6FF5006403246052136201C
:1023B00000F095FA0AE004F0040038B91348006808
:1023C000C08A40F4006011490968C8820120FFF703
:1023D00067F900220A212C2000F0A6FA002104202F
:1023E00000F0F1F8094909680861084800680069C7
:1023F000C0F301400549096888720021082000F0F7
:10240000E2F802490968C860002022E72C00002099
:102410003001CADE70B500210F2000F0D4F85E490B
:1024200009680446C86104F4804000285ED04FF477
:10243000DE4200210F2000F063FA002156480068B8
:1024400080F82410102000F0ABF80546C5F309060B
:1024500051480068807A08B906F07F064E48006847
:10246000068405F4004048B14B48006890F8240009
:1024700040F001014848006880F82410464803688D
:10248000223302220021112000F0C4F804F00800D9
:10249000B8B14148006890F8220000F0200080B9EF
:1024A000082200210F2000F02BFA3B480068C06989
:1024B00020F0080038490968C861002036490968D9
:1024C000487535480068C06A30B133480068C16A51
:1024D000314800681C3088472F480068007D20B1D3
:1024E000012203210D2000F01FFA00BF04F080003C
:1024F000D0B1F82200210F2000F002FA04F0080009
:1025000038B125480068407D18B1FFF755FE00F04E
:10251000FEF821480068806A30B11F480068816A6F
:102520001D4800681C30884704F40810C0B14FF4FF
:10253000003200210F2000F0E3F90020164909685D
:102540004875FFF739FE00F0E2F813480068006BA9
:1025500030B111480068016B0F4800681C30884793
:102560000E482040B8B10D4A00210F2000F0C8F9F4
:102570000020094909684875FFF71EFE00F0C7F8FA
:1025800005480068406B30B103480068416B024861
:1025900000681C30884770BD2C0000200090052486
:1025A000F8B504460D460026A9B2A0B26B46022239
:1025B00000F030F89DF800009DF8011000EB0120BC
:1025C00086B23046F8BDF8B505460E460027B1B2D2
:1025D000A8B26B46042200F01DF8032404E01DF8A5
:1025E000040000EB0727641E002CF8DA3846F8BD1B
:1025F00038B504460D46A9B2A0B26B46012200F0E0
:1026000009F89DF8000038BD10B500210846FFF715
:10261000DAFF10BD2DE9F84306460C4617469846EA
:1026200000252CB9F2B228466D1C0DF800201BE0E5
:10263000F0B240F0400228466D1C0DF800207F2CBF
:1026400005DCE2B228466D1C0DF800200CE0E0B27B
:1026500040F0800228466D1C0DF80020C4F3C7121C
:1026600028466D1C0DF80020A8B243463A4669463C
:1026700000F05AFABDE8F88370B504460D461646D8
:1026800023462A4631461120FFF7C4FF70BD10B51E
:1026900004462346052200211520FFF7BBFF10BD8D
:1026A00010B504462346052200211720FFF7B2FF8C
:1026B00010BD70B5044604F0040008B900F0FCF841
:1026C0004FF4807504F0010008B145F400752A4606
:1026D00000210D2000F003F904F00100A8B103214E
:1026E0000F20FFF785FF064606F0080068B1FFF7E8
:1026F00063FD04F0020028B94FF4807200210D2020
:1027000000F0EDF84FF0FF3070BD0020FCE710B591
:10271000E0220321362000F007F9F02203213620C1
:1027200000F002F910BD10B50446224601210A202E
:1027300000F0E6F810BD10B50446224624212720FB
:1027400000F0CDF810BD70B5054600211A20FFF746
:102750003AFF04466FF31304C5F313000443224603
:1027600000211A2000F0CCF870BD10B504462246B6
:1027700041F604012E2000F0B2F810BD70B50446F9
:1027800003210420FFF734FF0546002C14DD224608
:1027900000210C2000F0A3F845F010050E48006859
:1027A000006940F080500C49096808612A460321FD
:1027B000042000F0B9F80EE025F010050648006886
:1027C000006920F080500449096808612A46032105
:1027D000042000F0A9F870BD2C00002010B50446BC
:1027E00022460021182000F07AF810BD70B504468A
:1027F00004F01F0040F060052A460E212B2000F057
:1028000093F870BD10B5FEF741FF002211462C2051
:1028100000F065F8002206212C2000F085F8FEF774
:1028200010FF00220321362000F07EF80120FEF781
:10283000E3FFF0220321362000F076F80020024961
:102840000968487510BD00002C0000202DE9F041FA
:10285000044600260025002704F0020020B1802550
:10286000012014490968487504F00100C0B145F021
:1028700006052A4600210D2000F056F803210F20FE
:10288000FFF78EFE074607F4816008B900260EE0C8
:10289000402200210D2000F047F84FF0FF3606E0FF
:1028A00045F002052A4600210D2000F03DF8304693
:1028B000BDE8F0812C00002010B503210F20FFF7A8
:1028C00097FE044604F0800004F04001B0EB410F95
:1028D00004D0012203210D2000F026F810BDF8B528
:1028E00005460E461446E0B28DF8000020128DF821
:1028F0000100B1B2A8B26B46022200F01FF8F8BD89
:10290000F8B506460F461446002504E0E0B20DF87F
:102910000500240A6D1C042DF8DBB9B2B0B26B4679
:10292000042200F00BF8F8BD37B504460D46A9B2F5
:10293000A0B202AB012200F001F83EBD2DE9F84340
:1029400006460C461746984600253CB9F0B240F0C2
:10295000800228466D1C0DF800201BE0F0B240F00C
:10296000C00228466D1C0DF800207F2C05DCE2B269
:1029700028466D1C0DF800200CE0E0B240F080020B
:1029800028466D1C0DF80020C4F3C71228466D1CA4
:102990000DF80020A8B243463A46694600F08CF98B
:1029A000BDE8F88370B504460E4615462819B0F503
:1029B000806F07DCA21E334629460920FFF7BEFFC1
:1029C000002070BD4FF0FF30FBE700002DE9F04123
:1029D00004460D46164607480068C068204340EA92
:1029E000855040EAC6373A4600210820FFF788FFA5
:1029F000BDE8F0812C00002010B5024600230B60DA
:102A0000002006E0135CC400A3400C6823440B6064
:102A1000401C0428F6DB10BD00BF054A128802F0F6
:102A20004002002AF9D0C2B2014B1B1D1A80704728
:102A3000003801407CB500210C460D466846FFF782
:102A400026FE042607E0280240EA146524021DF849
:102A500006000443761E002EF5DA204629467CBD8A
:102A60007CB500210C460D466846FFF719FE04268A
:102A700007E0280240EA146524021DF8060004431A
:102A8000761E002EF5DA204629467CBD4FF4A06064
:102A9000FEF790F800F004F8FFF7D0F800BFFEE76B
:102AA00010B501217D20FEF7EBF901210803FEF7A7
:102AB000E7F901218803FEF7C3F9FDF7ADFEFEF744
:102AC000C3FE00F09AF8FDF7DBFFFDF72BFDFEF7E4
:102AD000BDF84FF4E13000F09FF8FDF7FDFF10BDA9
:102AE00030B504460920FDF73FFE054645B10920F3
:102AF000012181400A4A430942F8231000BF00BF68
:102B00000848046055B10920012181404209920022
:102B100002F1E022C2F8001100BF00BF30BD00008A
:102B200080E100E0300000202DE9F04706460F4626
:102B300090461D460024FEF773FE8146102018497A
:102B4000086000BF0DE0385D1649888100BF154858
:102B5000008900F001000028F9D01248808928700F
:102B6000641CB442EFDB00240DE000200D49888195
:102B700000BF0C48008900F001000028F9D0094886
:102B800080892855641C4445EFD310200449091F4F
:102B900008604846FEF736FE0020BDE8F0870000DA
:102BA000140801400030014008B54FF48070ADF8C2
:102BB000000010208DF8030003208DF80200694604
:102BC0000C48FDF779FE4FF480710A48FDF751FF7C
:102BD0004FF48070ADF8000000208DF80300032052
:102BE0008DF8020069460348FDF766FE0220FEF7F5
:102BF00003FE08BD00080140704710B5FEF7E4F978
:102C000010BD00B50820FEF7C5F900BD00B52020B5
:102C1000FEF7C0F900BD000010B586B004460121E2
:102C200044F20400FEF72CF94FF40070ADF81400E4
:102C300003208DF8160018208DF8170005A91C48F0
:102C4000FDF73AFE4FF48060ADF8140004208DF8D3
:102C5000170005A91648FDF72FFE25208DF8000066
:102C600003208DF801008DF8020001208DF803008B
:102C70006846FDF767FF01940020ADF80800ADF845
:102C80000A00ADF80C00ADF810000C20ADF80E00F5
:102C900001A90848FEF762FC012240F225510548CF
:102CA000FEF737FC01210348FEF7FDFB06B010BD1F
:102CB00000080140003801402DE9F04705460E4666
:102CC000174698460024FEF7ABFD814610201749B1
:102CD000086000BF0CE0305D1549888100BF1448D2
:102CE000008900F001000028F9D011488089641C97
:102CF000AC42F0DB00240DE018F804000C49888198
:102D000000BF0B48008900F001000028F9D00848F6
:102D10008089641CBC42EFD310200449091F08605D
:102D20004846FEF76FFD0020BDE8F087140801401B
:102D30000030014010B591EA030F48BF83F0004313
:102D400000F11084841A71EB030C05D2121943EBC5
:102D50000C03001B61EB0C01DFF824E14FEA115476
:102D6000A4EB135C1EEA430F18BF9EEA445F73D0C6
:102D700023EA0E03DCF1200E21EA045143F4801310
:102D800032D322FA0CFE10EB0E0023FA0CFE41EBBC
:102D90000E01CCF1200E03FA0EFE10EB0E0051F1E5
:102DA0000001B1F5801FCCF1200E32D201EB0451AD
:102DB00012FA0EF2BDE8104058BF7047401C38BFF1
:102DC0005FEA420218BF7047002814BF20F00100DC
:102DD00041F100014FEA410313F5001F38BF70476E
:102DE000A1F1C04100F07ABB012A43EB0302ACF130
:102DF000200CDCF11F0E32BF4FF0000E23FA0CF353
:102E000010EB030041EB0451B4EB115FD0D0A1EB08
:102E1000045101F5801149085FEA300001EB0451CB
:102E20000ED350F1000038BF12FA0EFE08D1BDE8F3
:102E30001040C9E7401C38BF5FEA4202CAD1C3E76D
:102E4000BDE810404FEA410313F5001F38BF70473B
:102E5000A1F1C04100F042BB9EEA445F08D011EAF4
:102E60005E0FBDE8104004BF01F000410020704734
:102E7000BDE8104070B500F0E3FA00BF64FBBE3E51
:102E80000000E0FF491058BFC1F140415B1058BF3E
:102E9000C3F140438B42EFF3008070472DE9C041FE
:102EA00030B4DFF8A0C23CEA111418BF3CEA131496
:102EB00000F0EC8081EA03051CEA111444EAD574A1
:102EC00018BF1CEA131500F0C780A4EB05044FF0EF
:102ED000004545EAC12145EAC32341EA505143EA8E
:102EE000525304F17F74994204F500344FEAC02034
:102EF0004FEAC22208BF904200F09C804FEA13655F
:102F00000FF24016765D4FEA134506FB05F7C7F151
:102F1000807706FB07F74FEAD737A7FB03687642AF
:102F2000C8F58038A7FB06CE38BFA8F1010807FB1B
:102F300008E64FF0000EA6FB028CE6FB03CEDCF1A8
:102F4000000CCEF1004E38BFAEF1010EA6FB0C58BE
:102F50004FF000074FF00005E6FB0E87A1FB08C607
:102F6000A0FB07CE16EB0E0645F10005E1FB076559
:102F700015F1E04E7EBFA4F580345FEA46066D4150
:102F800016F1800745F100054FEA17274FEA06665C
:102F900047EA0567A6F1DE46B6F1805F4FEA1525E0
:102FA0001FD9384624F0010C05EBC471BCF1FE6F4B
:102FB00001EB0C1102D8F0BCBDE8008124425CBFDB
:102FC00001F5801E9EEAC47F02D4F0BCBDE80081FA
:102FD000244238D4F0BCA1F1C041BDE8004100F06A
:102FE0007DBA4FEAD22242EA43524FEAD323A7FBEB
:102FF00002864FEAD02040EA415007FB03661EEAF2
:103000000E0F4FEAD12105FB026658BFA6EB005612
:10301000B6EB00564FEA520E4EEAC37E18EB0E0E88
:1030200056EB530EBDD518EB02085E417F1C55F1DF
:103030000005B6E74FF480154FF000074FF000068B
:103040004FF00008ADE7F0BC4FF0000001F1C041C7
:1030500001F00041BDE8008111EA0C1F0CEA1315D4
:1030600000D00CE013EA0C1F00F025804FF00000A8
:10307000F0BC81EA030101F00041BDE80081F0BC31
:10308000BDE8004181EA030100F028BAF0BCBDE8C8
:10309000004170B500F0D4F9097EFC3E00F007B89D
:1030A00081EA03014FF0000001F00041704781EA1E
:1030B000030100F013BAF0BCBDE800414FF000007E
:1030C00021497047FFFDFBF9F7F5F4F2F0EEEDEB67
:1030D000E9E8E6E4E3E1E0DEDDDBDAD8D7D5D4D316
:1030E000D1D0CFCDCCCBCAC8C7C6C5C4C2C1C0BF62
:1030F000BEBDBCBBBAB9B8B7B6B5B4B3B2B1B0AF68
:10310000AEADACABAAA9A8A8A7A6A5A4A3A3A2A14B
:10311000A09F9F9E9D9C9C9B9A9999989797969506
:1031200095949393929191908F8F8E8E8D8C8C8BA2
:103130008B8A89898888878786858584848383822A
:10314000828181800000FF070000F87F4FEA410381
:103150004FEA5353A3F58063D3F11E03C8BFD3F1E5
:10316000210C0CDD4FF0004242EAC12242EA5052EB
:1031700032FA03FC8CEAE17CACEBE1707047102B77
:10318000C4BF0020704703F5787CBCF1FF3F04D03A
:103190006FF0004282EA2100704770B500F050F9EC
:1031A0004992248000207047F2E700007FEAE17234
:1031B00002D1101A62EB0101B1FA81F30B3B24D367
:1031C000994012D1B0FA80F310FA03F108BF7047AA
:1031D000C3F11D0303F5406303EBC2234FEAD12281
:1031E0004FEA415002EB03517047C3F1200C20FA23
:1031F0000CFC9840C3F1320303F5406303EBC22398
:1032000041EA0C0101EB0351704710B5C3F1320CD8
:10321000C3F10004C4F1200E0CF5406C0CEBC2228B
:1032200001FA0EFC21FA04F100FA0EF3E040BDE8C9
:10323000104040EA0C0001EB025138BF7047401CBF
:1032400041F100015B0008BF20F001007047B0FAB7
:1032500080F310FA03F10AD0C3F11D0303F5806374
:103260004FEA41504FEA035202EBD12170474FF031
:103270000000704751EA030C17D41CF5801F58BF9B
:10328000BCF5801F00F10680994218BF704708BF47
:103290009042704707D711F5801F58BF13F5801F64
:1032A00019D499427047894270471CF5801F08D590
:1032B000BCF5801FF7D58B4218BF704708BF82420C
:1032C00070474FF4001C1CEB410F38BF1CEB430F41
:1032D00001D28B42704770B500F0B2F892244900D9
:1032E0004FF000514FF08053FFF7CCBDDFF848C1DD
:1032F00070B51CEA111E1EBF1CEA13159EEA0C0FC6
:1033000095EA0C0F00F06F8081EA030423EA4C1366
:103310004EEAD47E21EA4C1141F4801143F480132B
:10332000AE44A1FB024CA0FB0365AEF17F7E3619D3
:1033300055EB0C05A1FB034C4CF10003A0FB021C58
:1033400016EB0C06654153F10003094218BF46F025
:10335000010613F4007F0BD14FEA03314FEA053029
:10336000340341EA155140EA16506FF003020AE0B7
:103370004FEAC3214FEAC520F40241EA555140EA21
:1033800056506FF0020202EB2E4201EB025585EA25
:10339000CE710AD05FEA440C18BF24F0004450F10B
:1033A000000041F1000120EAD47040F2FE7C624549
:1033B00000D270BDA84214BF4FF080444FF040448B
:1033C000002E08BF0024BEF1806FA8BFA1F1C0414C
:1033D000BDE8704080F282804FF0000001F1C041F2
:1033E00001F0004170479EEA0C0F0CEA131518BF5C
:1033F00095EA0C0F06D04FF0000081EA030E0EF0A4
:10340000004170BD00F01CF88900013E00F007B8D3
:1034100000F009B84FEA430C5FEA5C5C08D081EA2F
:10342000030100F05BB84FEA410C5FEA5C5CF6D147
:103430004FF00000014970470000FF070000F87FCF
:103440000EF1020E2EF0030E5EF8046B364205D428
:10345000012A43EB030515F5001F12D8012841EBA3
:10346000010C1CF5001F0CD80ED14FEAD17C15F5CC
:10347000001F0CEB4C0C0CF1020C08BF4CEBD37C86
:1034800004E04FF0080C01E04FEAD37C0CEB4C0554
:1034900026FA05F606F00706B6F1040C06D20EEB86
:1034A000860CBDE870404CF0010C6047DFE80CF082
:1034B000090B02024FF000414FF00000A1F500217E
:1034C00070BD19461046012851EB010418BFD4F510
:1034D000001484BF002001F0004170BD0808A0F571
:1034E00000114FEA3101704753EA010C17D41CF563
:1034F000801F58BFBCF5801F00F106808B4218BFAB
:10350000704708BF8242704707D713F5801F58BF26
:1035100011F5801F19D48B4270479B4270471CF5F0
:10352000801F08D5BCF5801FF7D5994218BF70479A
:1035300008BF904270474FF4001C1CEB430F38BF8C
:103540001CEB410F01D2994270470FB40CBC03BC75
:10355000FFF7C1BE10B591EA030F48BF83F00043E7
:103560003FF5F0AB841A71EB030C07D212198CF003
:10357000004C43EB0C03001B61EB0C01DFF8A4E1F2
:103580004FEA1154A4EB135C1EEA430F18BF9EEAE6
:10359000445F00F0B08023EA6E03524221EA0451F6
:1035A000C3EB6E0338BF5B1EDCF1200E25D322FA7D
:1035B0000CFE10EB0E0043FA0CFE41EB0E01CCF1B9
:1035C000200E03FA0EFE10EB0E0051F10001CCF1BB
:1035D000200E29D412FA0EF201EB0451BDE810407E
:1035E00058BF7047401C1CBFB2F1004F7047002805
:1035F0000CBF491C20F00100704712EB020E43EB98
:10360000030218BF4FF0010E4EEA4202ACF1200C4B
:10361000DCF11E0E54D943FA0CFE10EB0E0051F1F2
:10362000FF31CCF11E0ED5D50EF1010E12FA0EFEB1
:10363000404141EB010101EB445C5FEA5C5C10D965
:1036400010EBDE7001EB045138BFBEF1004FBDE856
:10365000104018BF704700280CBF491C20F0010023
:10366000704730D24FEAD42C11F5001124F40064D5
:103670001BD0B1FA81F20B3AA41AA41ED2F1200396
:10368000914030FA03F31943904001EBCC71002CC8
:1036900001EB0451BDE81040A8BF704701F1C041E3
:1036A0004FF0000001F000417047B0FA80F310FACB
:1036B00003F100D110BDE41A173C4805C90AE4E73C
:1036C00001EB045110BD491001EB0451BDE810405D
:1036D0004FEA300002E04FF0000170474A0008BF97
:1036E0000042F8D0B2F5001F28BF704701F000413A
:1036F0004FF0000070479EEA445F07D011EA5E0F6A
:10370000BDE8104004BF002100207047BDE8104014
:1037100070B5FFF795FE00BF40DFF63E83F0004135
:10372000104670470000E0FF4FEAC1230A1543EA44
:1037300050534FEAC02C18BF43F000431BD4A2F2F1
:103740004E02D2F57C7240F34280502AA8BF50222C
:1037500023FA02F12CFA02F0D2F1200260B403FA4B
:1037600002F588BF2843C2F1000223FA02F598BF90
:10377000284360BC704702F57C7212F5826F08BF67
:1037800023F00043D2F12E0221DB1AD0502AA8BF29
:10379000502223FA02F12CFA02F0D2F1200260B496
:1037A00003FA02F588BF2843C2F1000223FA02F5AA
:1037B00098BF284360BC4042C1F1000138BF491E98
:1037C00070479CF0000F08BF93F0004FDED070B53B
:1037D000FFF736FE9224498000214FF00000704729
:1037E0006FEAE17080F000417047000000000000C7
:1037F00000000001010101010100000000C0C00043
:103800000000000000303000000000000000000058
:103810000000009070000000000000201C03000069
:10382000000000000080601C030000000000000099
:1038300000000030300000000000F008F080601848
:10384000000000310C031E211E00000000000000DB
:103850000000000000000000000000000000000068
:103860000000000101010101010000E01008081042
:10387000E000000F102020100F0000001010F800D2
:103880000000000020203F202000007008080808E9
:10389000F000003028242221300000300808088879
:1038A00070000018202121221C000000804030F808
:1038B000000000060524243F242400F88888880896
:1038C00008000019202020110E0000E010888890C8
:1038D0000000000F112020201F0000180808886831
:1038E00018000000003E01000000007088080888F1
:1038F0007000001C222121221C0000F00808081082
:10390000E0000001122222110F000000C038E00088
:103910000000203C23020227382008F8888888709D
:103920000000203F202020110E00C03008080808A9
:103930003800071820202010080008F80808081090
:10394000E000203F202020100F0008F88888E808B9
:103950001000203F20202320180008F88888E8085D
:103960001000203F200003000000C0300808083885
:10397000000007182020221E020008F80800000896
:10398000F808203F210101213F20000808F808081D
:1039900000000020203F2020000000000808F80858
:1039A0000800C08080807F00000008F888C02818C8
:1039B0000800203F20012638200008F808000000F9
:1039C0000000203F20202020300008F8F800F8F800
:1039D0000800203F013E013F200008F830C00008E9
:1039E000F808203F200007183F00E01008080810E2
:1039F000E0000F10202020100F0008F80808080829
:103A0000F000203F210101010000E010080808102B
:103A1000E0000F10282830504F0008F88888888868
:103A20007000203F2000030C302000708808080838
:103A300038000038202121221C00180808F8080846
:103A400018000000203F2000000008F808000008CF
:103A5000F808001F202020201F000878880000C8D8
:103A60003808000007380E01000008F800F800F8D8
:103A7000080000033E013E030000081868808068CB
:103A8000180820302C03032C30200838C800C83810
:103A900008000000203F2000000010080808C83877
:103AA0000800203826212020180000008080800097
:103AB000000000192424123F200010F00080800034
:103AC0000000003F112020110E00000000808080C7
:103AD0000000000E11202020110000008080809046
:103AE000F000001F202020103F20000080808080F8
:103AF0000000001F242424241700008080E0909000
:103B000020000020203F20200000000080808080D6
:103B10008000006B94949493600010F0008080808B
:103B20000000203F210000203F20008098980000E6
:103B300000000020203F2020000000000080989816
:103B4000000000C08080807F000010F000008080B6
:103B50008000203F240629302000001010F80000CB
:103B600000000020203F2020000080808080808096
:103B70008000203F20003F20003F80800080808028
:103B80000000203F210000203F2000008080808036
:103B90000000001F202020201F0080800080800067
:103BA000000080FF912020110E00000000808000A6
:103BB0008000000E11202091FF8080808000808096
:103BC000800020203F2120000100000080808080B4
:103BD00080000033242424241900008080E08080A9
:103BE00000000000001F20201000808000000080E6
:103BF0008000001F202020103F20808080008080D7
:103C0000800000030C300C030000808000808000E6
:103C10008080010E300C0738060100808080008013
:103C200080000020310E2E31200080808000008036
:103C30008080008186781806010000808080808066
:103C400080000021302C22213000060909E6F80C02
:103C5000040202020202041E0000000000071F30DE
:103C6000204040404040201000001060028C0000C6
:103C7000FE9292929292FE00000004047E01407E29
:103C800042427E427E42427E40000000FC242424C8
:103C9000FC252624FC242424040040308F80844CFE
:103CA00055252525554C808080001060028C00FE33
:103CB000929292929292FE00000004047E01444887
:103CC000507F40407F504844400000000000010207
:103CD00003040005405C0000A05C0400C06C080008
:103CE000805C0400E03F1E00E07D1E000704000928
:103CF0000805400809104008080540081D04000890
:103D00001D0400081E265626BEBED8BC07A90225E3
:103D100070889B88401008000A0016000100060009
:103D20000100020087008D003C001A3152001A3356
:103D30009A001A351D011A376B003B31BE003B3328
:103D40005E013B3596023B37000098599859EA517D
:103D50008E421E45142E0080EA51F4283233E03A98
:103D6000703DE03AC235842BC2353233C235C2359C
:103D7000AE47E03A5038A230503830313233343523
:103D80003637383941424344454640305800303197
:103D900032333435363738396162636465664030B2
:103DA00078000000C43D000800000020D80000009A
:103DB000280100089C3E0008D800002000090000EF
:103DC0004401000800A24A040000000000000000B6
:103DD00001020304060708090000000000000000BB
:103DE000010203040102030406070809020406088D
:103DF000D8000020000000000000000002020802BD
:103E00000909010000002104010000418800CADE08
:103E10001154FF41FF0000418800CADE21410054D7
:103E20000100000000418800CADE31540141000059
:103E30000000000000000000000000000000004141
:103E40008800CADE414100540100000000418800A2
:103E5000CADE5141FF5401000000000000000000D4
:103E60000000000000000000000000000000000052
:103E70000000000000000000000000000000000042
:103E80000000000000000000000000000000000032
:0C3E900000000000000000000000000026
:04000005080000ED02
:00000001FF
