:020000040800F2
:10000000981E0020A10200086D6F0008E927000873
:100010006B6F000809240008618B000800000000D5
:100020000000000000000000000000006D770008E4
:10003000A52400080000000061700008877800080F
:10004000BB020008BB020008BB020008BB0200089C
:10005000BB020008BB020008BB020008BB0200088C
:10006000BB020008BB020008BB020008BB0200087C
:10007000BB020008BB020008BB020008BB0200086C
:10008000BB020008BB020008BB020008BB0200085C
:10009000BB020008BB020008BB020008BB0200084C
:1000A000BB020008BB020008BB020008BB0200083C
:1000B000BB020008E9780008BB020008BB02000888
:1000C000BB020008BB020008BB020008BB0200081C
:1000D000BB020008ED880008BB0200085D8900082B
:1000E000BB020008BB020008BB020008BB020008FC
:1000F000BB020008BB020008BB020008BB020008EC
:10010000BB020008BB020008BB020008BB020008DB
:10011000BB020008BB020008BB020008BB020008CB
:10012000BB020008BB020008BB020008BB020008BB
:10013000BB020008BB020008BB020008BB020008AB
:10014000BB020008BB020008BB020008BB0200089B
:10015000BB020008BB020008BB020008BB0200088B
:10016000BB020008BB020008BB020008BB0200087B
:10017000BB020008BB020008BB020008BB0200086B
:10018000BB020008BB02000800F002F800F078F89B
:100190000AA090E8000C82448344AAF10107DA45E2
:1001A00001D100F06DF8AFF2090EBAE80F0013F0BC
:1001B000010F18BFFB1A43F00103184710F40000A9
:1001C00030F400000A444FF0000C10F8013B13F02B
:1001D000070408BF10F8014B1D1108BF10F8015BA0
:1001E000641E05D010F8016B641E01F8016BF9D193
:1001F00013F0080F1EBF10F8014BAD1C0C1B09D1EA
:100200006D1E58BF01F801CBFAD505E014F8016B5B
:1002100001F8016B6D1EF9D59142D6D370470000ED
:100220000023002400250026103A28BF78C1FBD8FF
:10023000520728BF30C148BF0B60704766290DF0D8
:100240004180642900F0BE80782900F0F78073298E
:1002500000F0C584002070471FB50DF026F800F0AF
:1002600033FD0400002000210CF080F9401C606088
:10027000002000210CF064F9E0601FBD10B510BD36
:1002800000F04AFE1146FFF7E7FF0BF0E9FC01F032
:10029000F3F803B4FFF7F2FF03BC0AF00DFA000015
:1002A0000948804709480047FEE7FEE7FEE7FEE70A
:1002B000FEE7FEE7FEE7FEE7FEE7FEE70448054946
:1002C000054A064B7047000089780008890100083C
:1002D00098180020981E0020981A0020981A0020D4
:1002E000704700000FB4044910B503AA029800F04B
:1002F0007BFC10BC5DF814FBD00400200FB41CB5CF
:10030000074B06AA7B4469460090059800F03DFC27
:100310000020694600F04CFC1CBC5DF814FB00009A
:10032000A908000070B5044685690068C10601D5BA
:10033000302600E02026C00707D070BDD4E9012197
:1003400030469047206A401C20626D1EF6D570BD75
:1003500070B5044685690078C00707D170BDD4E93F
:10036000012120209047206A401C20626D1EF6D596
:1003700070BD70B50C460546012A05D02878800668
:1003800000D5EA69002302E0012305E05B1C9342EB
:1003900002D2E05C0028F9D1A869E618C01AA86169
:1003A000286A184428622846FFF7BCFF04E0D5E914
:1003B000012114F8010B9047B442F8D32846FFF707
:1003C000C7FF70BD2DE9F04106460024106875296D
:1003D000314616A510D0AFF30080002802DA404263
:1003E00013A507E031688A0701D512A502E0490785
:1003F00004D511A5012401E0AFF3008000210A22F9
:1004000006F1240709E0B0FBF2FCB0FBF2F302FBBB
:100410001C00303078541846491C0028F3D123467C
:100420002A463046BDE8F04100F041B90000000026
:100430002D0000002B0000002000000070B50446D5
:100440000D4621461068AFF300802188090502D5CA
:100450000F4A7A4402E00E4A7A440E32002104F137
:10046000240305E000F00F060009965D5E54491C68
:100470000028F7D120780023000704D5702D02D082
:1004800009B1022311322046BDE8704000F00FB9D7
:1004900082EF00002DE9F0474FF0000A894604463C
:1004A000C0F820A02046E1688847002876D025289B
:1004B00006D0D4E901219047206A401C2062F1E770
:1004C000E168204600258847C4F81CA0064600279E
:1004D000C4F818A02A2E09D030460AF0E6F838B33E
:1004E00004EB8708303EC8F8186019E059F8041B7F
:1004F000204604EB87029161E1688847012F064698
:1005000018D1E069002820DA25F020051DE0D8F890
:10051000180000EB800006EB40003038C8F81800E7
:100520002046E168884706460AF0BFF80028EED169
:10053000012F0AD02E2E08D12046E16888477F1C63
:100540000646022F45F02005C4DBA069002803DA27
:10055000404245F00105A061E80701D025F01005F3
:10056000B6B1A6F14100192802D8203645F400653D
:100570004A463146204625604D46FFF75FFE58B19A
:10058000012806D0ED1D25F0070000F1080989E7D4
:1005900004E005F1040985E730468AE7206ABDE8F2
:1005A000F08740EA010310B59B070FD1042A0DD351
:1005B00010C808C9121F9C42F8D020BA19BA884244
:1005C00001D9012010BD4FF0FF3010BD1AB1D30783
:1005D00003D0521C07E0002010BD10F8013B11F8B9
:1005E000014B1B1B07D110F8013B11F8014B1B1BE2
:1005F00001D1921EF1D1184610BD10B5431C02E086
:1006000010F8011B71B18107FAD14FF0013202C815
:100610008C1A8C4314EAC211F9D0C01A0A0603D00E
:10062000C01E10BDC01A10BD0A0401D0801E10BD2E
:100630000902FCD0401E10BD4FF0000200B5134669
:1006400094469646203922BFA0E80C50A0E80C50F2
:10065000B1F12001BFF4F7AF090728BFA0E80C50A3
:1006600048BF0CC05DF804EB890028BF40F8042B9C
:1006700008BF704748BF20F8022B11F0804F18BF09
:1006800000F8012B704770477047704770470000B3
:10069000004870473418002010B5FFF7F9FF0068D4
:1006A00010BD10B50446FFF7F3FF046010BD2DE93F
:1006B000F0470D4699469246044600F12408016829
:1006C000880604D5E06921F01001216000E00120D6
:1006D000A84201DD471B00E00027A1697A1902EB5F
:1006E0000900081AA0612078C00602D42046FFF74E
:1006F00019FE002608E0D4E901211AF80600904707
:10070000206A401C761C20624E45F4DB2078C0062F
:100710000AD52046FFF706FE06E0D4E90121302085
:100720009047206A401C2062381EA7F10107F4DCC4
:1007300007E0D4E9012118F805009047206A401C21
:100740002062281EA5F10105F3DC2046FFF700FE1C
:100750002078000602D50220BDE8F0870120FBE7E3
:1007600070472DE9FF4F0C461E464FF0FF378BB008
:10077000D2E90001DDF860800A908A46C1F30A558B
:1007800005B93D46002108464FF00000BAF1000FC0
:1007900000F4400005DA00EB80004FF4400101EA6C
:1007A00050004FEA9059B9F1010F00DDB9460A989F
:1007B00050EA4A000ED044F61050A5F2FF354543EA
:1007C0002F14B8F1000F1ED07542291E1EDDC9F18D
:1007D00000021CE0B8F1010F4FF0000001D0302101
:1007E00003E0F24305E02154401CB042FBDB3046FD
:1007F0000022002121540B99C1F80880C1E9002092
:100800000FB0BDE8F08FBD1B6D1CDEE74A4600DA75
:10081000694206A800F00AFB06AB93E8070003ABA9
:1008200083E8070050460A9901F0ADF88DE807000B
:10083000A0F500501F3800900398002D0ADD42F209
:100840001F014A460844002303A90390684601F0AB
:1008500059FB09E0A0F500504A461F38002303A9C0
:100860000390684601F078FB8DE807000004000C57
:1008700003D04FF0FF30410800E01046B8F1000F00
:1008800003D00022009215461EE0751E05D400F02C
:100890001FFA303262556D1EF9D5B3460122084366
:1008A00002D000227F1C04E02078302801D10022F1
:1008B0007F1E002A099784D01DE0112D07DA00F071
:1008C00007FA303262556D1C50EA0102F5D1084337
:1008D00002D00098C8B10EE00021681E05E0235C3C
:1008E000625C63542254401E491C8142F7DBAB46D4
:1008F000A81B401E0990002004F80B000B98099AD1
:10090000C0F80880C0E9002B7AE711264FF00008F4
:1009100057E72DE9F04F88460446D21D22F0070123
:1009200091B0D1E90001CDE90A0108F0C9FD024604
:100930000B98C00F01D02D2007E02068810701D55A
:100940002B2002E0202101EAC000032A099001D0F7
:10095000072A05DB03464146204600F007FA0BE173
:100960002078800601D5E06900E00620B8F1650F27
:10097000814606D0B8F1660F18D0B8F1670F70D174
:1009800031E00020B9F1110F009001DB112301E0EB
:1009900009F101030AAA01A90CA8FFF7E2FEDDE9AB
:1009A0000C70002609F10105834647E001204B4603
:1009B00000904FF000470AAA01A90CA8FFF7D1FE4A
:1009C000DDE90DB00C995D46002610B909F1010072
:1009D0000D18B9EB050003D4C0F1FF3609F101058C
:1009E000A5EB09002BE0B9F1010F01DA4FF0010985
:1009F0000020B9F1110F0090484601DD112300E0FD
:100A000003460AAA01A90CA8FFF7ABFEDDE90C70AA
:100A10004D4600268346207800070AD4AB4500DA0D
:100A20005D4601A8012D04DD411911F8011C302992
:100A300007D04F4502DA17F1040F04DA012082468D
:100A40000FE06D1EEEE7002F02DCED1B3E4403E0DD
:100A5000781CA84200DD7D1CB81B00F1010A4FF094
:100A600000472078000703D4AA4501DB4FF0FF3A86
:100A70000021B7F1004F0DF143088DF8431024D049
:100A800002202B23002F01DA7F422D230A21021E90
:100A9000A0F1010000DC5FB197FBF1FC97FBF1F2E4
:100AA00001FB1C7C17460CF1300C08F801CDEEE779
:100AB000A8F1010003702188090501D5452100E056
:100AC0006521A0F1010800F8011C09980FA9A1EB0C
:100AD0000807FF1D00B10120411901EBEA70A1696F
:100AE0003844081A401EA0612078C00602D420466F
:100AF000FFF718FC099828B1D4E901219047206A32
:100B0000401C20622078C00622D52046FFF70AFC50
:100B10001EE0002E04DBB34502DD01A8805D00E08D
:100B20003020D4E901219047206A401C2062761CC5
:100B3000AAF101005FEA000A0AD100F0C5F8C06816
:100B40000168405CD4E901219047206A401C206282
:100B5000281EA5F10105DCDC07E0D4E9012118F825
:100B6000010B9047206A401C2062381EA7F1010744
:100B7000F3DC2046FFF7ECFB032011B041E6000058
:100B800001694A1C02610878704700B58FB0CDE951
:100B900001310021059105497944CDE90310114641
:100BA0006846FFF777FC0FB000BD0000E5FFFFFFD0
:100BB0000A6802F8010B0A60704710B5436913B167
:100BC000AFF3008001E0FFF7D4FB012010BD1278E5
:100BD00000F124010A7000224A700122EDE7116839
:100BE0004FF0FF32E9E70000074B70B50D467B443C
:100BF000FFF7CBFF0446284600F08AF910B14FF00A
:100C0000FF3070BD204670BD0BAC00000FB4002358
:100C100000B589B00CA900910B99CB60214B7B44A6
:100C20000693214B7B44079304236FF00042CDE9E8
:100C300001321E4A7A446B460892024600200CF0AC
:100C4000A3FB09B05DF814FB70B506464FF0FF300A
:100C500015460C46324686B00091CDE90101694641
:100C60000020049004A8FFF7D1FF02460498211841
:100C700025B108B1084600E0204628600498002805
:100C80000DD0002A02DD0098884208D03246081BA9
:100C900069460094CDE9010404A8FFF7B7FF06B048
:100CA00070BD0000CB010000E30100002301000043
:100CB000004870473418002010B500F005F8001DFA
:100CC00010BD00BFA9B800000048704754180020AC
:100CD00030B5B0F10A024FEA900E71F100034EEA0E
:100CE000817EB0EB0E0061EB91014FEA101E4EEADF
:100CF000017E10EB0E0041EB11114FEA102E4EEA6F
:100D0000016E10EB0E0041EB11214FEA104E4EEA3E
:100D1000014E10EB0E0041EB1141401841F1000172
:100D20004FEAD00040EA41704FEAD10110EB800554
:100D30004FEA810444EA907444EB01046D1944EBDA
:100D40000404521BA3414FF0000348BF0A3200D5F0
:100D500030BD401C41F1000130BD10B50446FFF725
:100D6000ABFF0068005D00F0010010BD2DE9F0410F
:100D70001F46044603260168072A01F4006004DBCD
:100D800008B116A505E016A503E008B115A500E019
:100D900015A521F010002060A069C01EA0610FB150
:100DA000401EA0612046FFF7BDFA4FB1D4E90121F2
:100DB00038469047206A401C2062C01C206206E032
:100DC000206AFAE7D4E9012115F8010B9047761E55
:100DD000F8D22046FFF7BCFABDE8F0814E414E0044
:100DE0006E616E00494E4600696E6600426842B10F
:100DF000016811F8013B23B1521EC0E900121846E8
:100E000070470121C160881E704742685AB1C368AB
:100E1000016843B983688B4205D0491E521CC0E962
:100E20000012002070474FF0FF3070472DE9F04767
:100E3000814616468AB0354878440DC88DE80D00C5
:100E400032487844801C03AC0DC884E80D0041F69C
:100E50009B300844372190FBF1F290FBF1F5A5F1AE
:100E6000800501FB12041B3C02D56442012000E016
:100E70000020DFF898A080460027FA44AAF1BE0AB5
:100E80000EE0E0070AD03246684607EB470101232F
:100E90000AEB810101F060F88DE8070064107F1C07
:100EA000002CEED1194F7F44AE3F19E0E80715D072
:100EB00007EB04100DF1180A90E80E008AE80E0006
:100EC000C068F04201D1981908903246012306A962
:100ED00003A801F041F803AB83E807006D10641C20
:100EE000002DE3D14FF0010332466946B8F1000FFF
:100EF00003A802D001F006F801E001F02DF8C9E9DD
:100F00000001C9F808200AB0BDE8F087D0E600006B
:100F1000007B00F0800070477546FFF7C9FEAE46C3
:100F200005006946534620F00700854618B020B5F5
:100F3000FFF7C4F9BDE820404FF000064FF000076E
:100F40004FF000084FF0000B21F00701AC46ACE871
:100F5000C009ACE8C009ACE8C009ACE8C0098D46DE
:100F600070473A2800D2303820F02002412A01D3BD
:100F7000A2F13700884201D34FF0FF3070470000E4
:100F80002DE9FF4F06468BB00878FF2806D0491C94
:100F90002D2805D000244FF0000908E000200CE0C7
:100FA0000124F8E709EB8903491C00EB43090878A1
:100FB000FF28F7D114B1C9F100008146107800254F
:100FC0002C46AA4629462D2801D02B2804D1521C94
:100FD0002D2813D0002082468B461078FF280FD092
:100FE0004FF0000C0A21521CA5FB017804FB018183
:100FF00005FB0C11C5194BEB0104EEE70120EAE7F4
:10100000002108464FF00000BAF1000F02D000EBBB
:1010100080004008C0F38157012F01DD4FF0FF37FA
:101020000E9955EA040009EB01080BD04FF00209B4
:1010300018F5FA7F16DA4FEACA70002F706008DDE3
:10104000012007E04FEACA70C6E900B00FB0BDE862
:10105000F08F00203060FFF71BFBC0F800901821D4
:10106000084616E0B8F5FA7F18DD002F02DAF748D7
:10107000784401E0F6487844D0E90010C6E9001051
:1010800040EACA707060FFF703FBC0F800901421BB
:1010900008460FB0BDE8F04F0CF011B9002108462A
:1010A0004FF00000B8F10001099002DAC7F1000228
:1010B00000E03A4601DAC8F1000106A8FFF7B6FEE3
:1010C00006AB93E8070003AB83E8070044F23E0059
:1010D0005BEA04010090584604D144F21E012C46FC
:1010E0005D460091210C0904014306D100992404B6
:1010F00044EA15442D041039009104F07F41014366
:1011000006D10099240244EA15642D0208390091A1
:1011100004F07041014306D10099240144EA15749A
:101120002D01091F009104F04041014306D10099AF
:10113000A40044EA9574AD00891E009104F00041BA
:10114000084304D100986D196441401E00904FF08F
:1011500001033A466846B8F1000FCDE9014503A9FD
:1011600002DD00F00EFF01E000F0E1FEBAF1000F39
:1011700004460D4601D084F00044002108464FF09B
:101180000000099940F2FF77484010F00C0F07D19A
:1011900024F00040284303D0C4F30A50B84212D1CF
:1011A000FFF776FAC0F80090C4F30A50B8420AD1AB
:1011B000A8487844D0E90010C6E9001004F00041C6
:1011C0000843706042E7C6E900543FE72DE9FF4F4E
:1011D0001F464FF0000A4FF0FF38454691B0D7E95F
:1011E0000146CDF83CA0FFF76FFDC0680168405C88
:1011F0001090B96912986D1C8847396A81468847F2
:101200000028F6D1B9F1FF3F0AD0002E24F4D064B3
:1012100011DDB9F12B0F08D0B9F12D0F0BD102E080
:10122000404615B013E744F48064B96912986D1C08
:101230008847761E8146600504A901D52D2000E06F
:101240002B20002E01F1010B0DF130088DF810005C
:101250003FDDB9F1690F08D0B9F1490F05D0B9F1F7
:101260006E0F02D0B9F14E0F1CD13B4601A800957C
:1012700080E85002DDE912126FF002000CF088F8ED
:10128000C11CCED10EE0B96912986D1C8847814609
:101290001398761E44F4007405600F98401C002ECD
:1012A0000F9016DDB9F1300FEDD0B9F1780F02D003
:1012B000B9F1580F0DD10F9801280AD13B46CDE95D
:1012C0000054DDE91212001F02960CF05FF8C11CF9
:1012D000A7D1109989453ED144F0800406E01399C6
:1012E000681CAAF1010A44F400740860B9696D1C15
:1012F0001298761E884730288146F0D02BE010994E
:10130000894505D1200603D4761E44F0800418E0F8
:10131000484609F0CAF908B3761E0DF123018B4542
:1013200044F4007408D2A9F130000BF8010B200638
:1013300007D5AAF1010003E0200602D40AF101005A
:101340008246A00502D51399681C0860B9691298F5
:101350006D1C88478146002ED1DC53E0002E51DD04
:10136000B9F1650F02D0B9F1450F4BD1A00549D5B0
:10137000B9696D1C1298761E24F440748847002EBB
:1013800081460CDD2B2804D0B9F12D0F07D144F490
:101390008074B96912986D1C8847761E8146E005F5
:1013A00001D52D2100E02B2108F8011BCDF800808C
:1013B00021E0761E0DF13901884544F400740CD209
:1013C000A9F1300010F0FF0088F8000002D1009968
:1013D000884509D908F1010806E0E00501D51E4855
:1013E00001E042F20F708246B96912986D1C88477D
:1013F000814613980560002E04DD484609F055F932
:101400000028D6D1F96912988847FF2053468BF8F7
:10141000000088F8000000200A900B9004AA0CA994
:101420000AA8FFF7ADFDA00502D46FF00100F8E6B1
:1014300014F0240F12D0E0071CD13868DDE90A123D
:10144000031D3B600068C0E9001213E080E5000066
:1014500072E5000036E40000F1D8FFFF0AA96846F3
:1014600009F03EF8E00705D13868009A011D39609F
:10147000006802602846D4E610B50446AFF3008049
:101480002046BDE81040FEF704BF00004FF0013CCD
:1014900050F8042B51F8043B9A4221D1A2EB0C03E3
:1014A000934313EACC1317D150F8042B51F8043BA3
:1014B0009A4215D1A2EB0C03934313EACC130BD140
:1014C00050F8042B51F8043B9A4209D1A2EB0C03CB
:1014D000934313EACC13DBD04FF00000704700BFFA
:1014E000D01A01BAB1FA81F101F0180122FA01F023
:1014F000CB40C1F12001DBB2C0B2C01A2CFA01F31B
:10150000D11A914311EAC311E6D170472DE9FF4F7B
:101510001F464FF03C0987B04FF00042DDE9141040
:1015200001F10108DDF858A002EA405003900020C4
:1015300005908346054604460490B969461E0898FE
:101540008847AAF1010A0290BAF1000F3BDD029828
:101550002E2815D01021FFF704FD00282EDB4FF0B8
:10156000010B0599014317D0B9F1000F0BDB4A4677
:10157000C11700F0F5F905430C43A9F1040905E092
:10158000012004900BE008B145F001050120059011
:10159000049820B9361D02E0049800B1361FB969DD
:1015A000089808F101088847BBF1000FAAF1010A69
:1015B0000290C9D00999C1F80080C5E70298702847
:1015C00008D0502806D0F96908988847BBF1000F69
:1015D00014D04FE0002002900120BBF1000F0490D6
:1015E00009D0B969089808F101088847AAF10109EA
:1015F000B9F1000F07DCF969089888476FF001001E
:101600000BB0BDE8F08F2B2804D02D280CD14FF063
:10161000FF300490B969089808F101088847A9F1DA
:101620000109B9F1000FE6DD411CE4D00A21FFF702
:1016300098FC0028DFDB029908F1010801EB810129
:1016400000EB41000290B969089888470A21FFF72A
:1016500088FC099AA9F10109B9F1000FC2F80080CC
:1016600001DD0028E7DAF9690898884704990298AB
:1016700000FB016655EA040004D004F04041090073
:1016800002D006E0039898E0A40044EA9574AD0007
:10169000B61E04F00041080002D16D196441761EA7
:1016A000159810F0240F03D04FF00B095C4803E0AD
:1016B0004FF028096FF07D008246564507DAAAEB05
:1016C00006018944B9F1410F01DD4FF041090120C4
:1016D0000021A9F1010200F043F9024628400B461F
:1016E0002140084301D0012100E00021501E029159
:1016F00043F1FF3128402140084301D0012000E0A0
:1017000000200299834651EA0B014FD00021084680
:101710004FF00000039900F4400039B100EB800065
:101720004FF4400100EBD07001EA60008015012801
:1017300002DD4FF0FF3000E013D0401C36D002989D
:1017400060B3BBF1000F0CD14A460120002100F02C
:1017500007F928402140084301D0012000E0002083
:10176000E0B101204A46002100F0FAF80346401992
:101770000A4661412D1A8C4111D3B9F1400F09DDA0
:10178000159810F0240F02D0AAF1340603E0AAF154
:10179000170600E0761C00254FF0004406E05B1EB3
:1017A00042F1FF3220EA030521EA0204CAF10100F6
:1017B000B04206DA1B4903980843019000200090CC
:1017C0000EE0039AC4F3D321E80A0A43164940EA1B
:1017D00044500A433146CDE90002684608F089FECC
:1017E000159810F0240F0BD01598C00715D1386844
:1017F000DDE90012031D3B600068C0E900120CE047
:1018000002A8694608F06CFE1598C00705D1386833
:10181000029A011D3960006802604046F0E600004F
:1018200002FCFFFF0000F07F0000F03F2DE9FF4FBA
:1018300092461D4685B04FF00041DDE9124BDDE9CF
:1018400014727F1E01EA4B50414940F0FF4940EAC3
:101850000108002122F020004928049102D04E28DE
:1018600028D04CE03BA0012607C88DE80700A969F5
:101870000698641C88477F1E014606D41DF80600A2
:1018800018B121F0200181420BD0E9690698884700
:10189000032E34D0082E32D06FF0010009B0BDE81D
:1018A000F08F761C032E01D0082EE0D1601CCAF800
:1018B0000000DCE7A9690698641C88477F1E2AD4CB
:1018C00020F02000412826D1A9690698641C884789
:1018D0007F1E20D420F020004E281CD1A969069834
:1018E000641C88477F1E48F4002849F48009CAF820
:1018F000004001D4282806D0E969069888475FEAA5
:10190000CB7012D022E0A9690698641C88477F1E1C
:1019100001D4002803DAE96906988847BCE729283A
:10192000F1D1641CCAF80040E9E71BF0240F07D08E
:1019300028680499031D2B600068C0E9001805E0C1
:101940002868021D2A600068C0F800902046A5E7BC
:101950000000F07F494E46494E49545900000000AE
:10196000B2F120030AD5C2F1200301FA02F120FAF4
:1019700003F300FA02F041EA0301704700FA03F1B1
:101980004FF0000070475FEA400C08BF91F0000F75
:101990004FEA8C234FEAC12243EA51514FEA1C50CF
:1019A00018BF00F5F0404FEA300018BF41F0004189
:1019B0005FEA6C5C00F02980BCF1FF3F08BF40F09B
:1019C00080407047130C06BF12044FF0100C4FF00C
:1019D000000C130E04BF12020CF1080C130F04BF0D
:1019E00012010CF1040C930F04BF92000CF1020CD5
:1019F000D30F04BF52000CF1010C11464FF000024E
:101A0000A0F11F00A0EB0C00704711F0004F08BFC1
:101A1000704731F000413FF4D5AF0B0C06BF09040D
:101A20004FF0100C4FF0000C0B0E04BF09020CF12C
:101A3000080C0B0F04BF09010CF1040C8B0F04BF41
:101A400089000CF1020CCB0F04BF49000CF1010C12
:101A5000CCF12003A0EB0C0022FA03F302FA0CF203
:101A600041EA030100F10100704720F07F4C80EA59
:101A7000030023F07F47ACEB070303F57C5300F032
:101A8000004003F1FF032DE980494FEA154B09B4EB
:101A90004FEA144325EA0B4E24EA03480FF20426CA
:101AA00006EB132749083E785FEA320203FB06671C
:101AB000C7F5000707FB06F64FEA54374FEAD6464C
:101AC00006F1020607FB066CCCF1005C4FEA1C47EE
:101AD0002CEA074C07FB06F40CFB06F504EB154655
:101AE0004FEA961634BF00204FF000404FEAD1373E
:101AF00006FB07FC4FEA1C4C0CFB0BF7D21B03FB4D
:101B00000CF761EB07010CFB0EF7B0EB074072EB33
:101B100017420CFB08F734BFA2EB0742B2EB0742B7
:101B200061EB17414FEA0C444FEA910706FB07FCB3
:101B30004FEA1C4C0CFB0BF7B0EBC74072EB573273
:101B400003FB0CF734BFA2EBC742B2EBC74261EB19
:101B500057310CFB0EF7B0EBC70072EB57720CFB62
:101B600008F734BFA2EBC702B2EBC70261EB5771B3
:101B7000039F4FEA816141EA921104EBCC044FEAE2
:101B8000D1374FEA826206FB07FC42EA90124FEA25
:101B900080604FEA1C4C0CFB0BF7D21B03FB0CF7CD
:101BA00061EB07010CFB0EF7B0EB074072EB17423D
:101BB0000CFB08F734BFA2EB0742B2EB074261EB24
:101BC00017414FEA8C554FEA910704EB9C2406FB22
:101BD00007FC4FEA1C4C0CFB0BF7B0EBC74072EB59
:101BE000573203FB0CF734BFA2EBC742B2EBC7423C
:101BF00061EB57310CFB0EF7B0EBC70072EB57727D
:101C00000CFB08F734BFA2EBC702B2EBC70261EBD3
:101C1000577115EB4C254FEA816141EA92114FEA69
:101C200082624FEAD13742EA901206FB07FC44F188
:101C300000044FEA80604FEA1C4C0CFB0BF7D21BF0
:101C400003FB0CF761EB07010CFB0EF7B0EB074051
:101C500072EB17420CFB08F734BFA2EB0742B2EB62
:101C6000074261EB174115EB1C154FEA813141EA40
:101C700092414FEA823242EA90424FEA80304FEA84
:101C80000C7644F1000448EA03434EEA0B484FF057
:101C9000000EB2EB080C71EB030724BF6246394615
:101CA0004EEB0E0E4FF0000B0018524149414BEB2A
:101CB0000B0BB2EB080C71EB03077BF1000B24BF9D
:101CC000624639464EEB0E0E4FF0000B00185241A3
:101CD00049414BEB0B0BB2EB080C71EB03077BF1AB
:101CE000000B24BF624639464EEB0E0E51EA020746
:101CF00018BF46F0010616EB0E7655F1000254F1BE
:101D0000000103D5BDE88901BDE80088BDE889016F
:101D1000BDE80048B619524141EB0101A3F10103AE
:101D2000704780807F7E7D7C7B7A79787776767548
:101D30007473727171706F6E6E6D6C6C6B6A6A69C0
:101D40006868676666656464636362616160605F5A
:101D50005F5E5E5D5D5C5C5B5B5A5A5959585857D3
:101D6000575656555555545453535252525151503B
:101D700050504F4F4F4E4E4D4D4D4C4C4C4B4B4B8E
:101D80004A4A4A49494948484847474747464646D4
:101D9000454545444444444343434342424242410F
:101DA0004141000046EA0646A3F570534FEA164645
:101DB00046EA42564FEAD22242EA415210B54FEA71
:101DC000D121A3F1010300F02FF820F0004000F131
:101DD000020C00F0004701EB00501146BCF5006F0B
:101DE00040EA070000D210BDBAF1000F0AD01CB5BE
:101DF00003B44FF004004FF004014FF000000FBC9B
:101E0000BDE810404FF00001BBF1010FB9BF04481D
:101E10004FF0FF310348002140EA070010BD00BF2A
:101E2000FFFFEF7F0000F07F002B9C4630D477004F
:101E30002BD01CB54FEA370703B44FF010004FF01A
:101E40001001BAF1000F06D0BCF1000FDCBF40F06A
:101E5000080040F008014FF000000FBCBDE8104042
:101E60000BF1010BBBF1010F08BF5FEA170722BF9F
:101E700012F1010211F101014FF0004143F10003A1
:101E800000F0004043EA00007047F9D35708D0E75C
:101E900046EA064613F1400F4FEA16461FDD13F1DE
:101EA000200FDFBF16430A46002120335B42BED01D
:101EB000C3F1200746EA064602FA07F74FEA16463C
:101EC00046EA0706C3F1200722FA03F201FA07F7F0
:101ED00021FA03F14FF0000342EA0702A7E746EABE
:101EE000020646EA06464FEA164646EA0106BCBF27
:101EF00046EA0646360C4FF000034FF000024FF062
:101F0000000194E72DE9804C9A46934670B491E81D
:101F1000380007C831EA400C48BF34EA430C03D507
:101F2000FFF7A3FDFFF780FFF0BCBDE8008C2DE9B3
:101F3000804C9A46934670B491E8380007C831EA5D
:101F4000400C48BF34EA430C03D5FFF78EFDFFF782
:101F500029FFF0BCBDE8008C2DE9804C9A469346E1
:101F600070B491E8380007C810F0804F08BF13F034
:101F7000804F03D100F01AF8FFF756FFF0BCBDE820
:101F8000008C2DE9804C9A46934670B491E8380055
:101F900007C810F0804F08BF13F0804F03D100F046
:101FA00005F8FFF7FFFEF0BCBDE8008C20F07F478E
:101FB00080EA030023F07F4C07EB0C03A3F57C536E
:101FC00000F00040A3F1FE0392F0000F00F0B38098
:101FD00095F0000F00F077802DE901494FEA11409C
:101FE0004FEA144621EA004800FB06FC24EA0647B3
:101FF00008FB06F607FB08F800FB07F718EB064896
:102000004CEB164C4FEA124B18EB07484FEA1546BB
:102010004CEB174022EA0B4E0BFB06FC25EA064769
:102020000EFB06F607FB0EFE0BFB07F71EEB064E3C
:102030004CEB164C4FF000061EEB074E4CEB174BCB
:1020400018EB0B0840F1000018EB0E0B58EB0008E2
:1020500040F100008F1A4FF000013CBFC943661BDE
:1020600014BFB5EB040C00213CBFC943F61B4FEA7B
:1020700017444EEA8E0E27EA04454FEA1C4704FB3C
:1020800007622CEA074C05FB07F70CFB05F604FB7F
:102090000CFC16EB074642EB174216EB0C4642EBE4
:1020A0001C421BEB060658EB0202414146EA9E0623
:1020B00001D5BDE80189B619524141EB0101A3F1F7
:1020C0000103BDE801894FEA14454FEA114724EAAC
:1020D000054621EA074C05FB07F406FB07F70CFB56
:1020E00006F105FB0CFC11EB074144EB17444FEAEA
:1020F000124711EB0C4144EB1C4422EA074C05FB50
:1021000007F206FB07F70CFB06F605FB0CFC16EBCB
:10211000074642EB174216EB0C4642EB1C456A1889
:1021200054F1000148BF7047B619524141EB01011B
:10213000A3F10103704795F0000F37D04FEA114229
:102140004FEA144721EA024624EA074C02FB07F152
:1021500006FB07F70CFB06F402FB0CFC14EB074430
:1021600041EB17414FEA154714EB0C4441EB1C417E
:1021700025EA074C02FB07F506FB07F70CFB06F602
:1021800002FB0CFC16EB074645EB174516EB0C461D
:1021900045EB1C42121951F1000148BF7047B619B6
:1021A000524141EB0101A3F1010370474FEA14458D
:1021B0004FEA114724EA054621EA074C05FB07F1DF
:1021C00006FB07F70CFB06F24FF0000605FB0CFCC4
:1021D00012EB074241EB174112EB0C4251EB1C4151
:1021E00048BF7047921841EB0101A3F1010370470A
:1021F000002904D0816841F0010181607047816845
:1022000021F0010181607047084A1168084B1940AC
:10221000D0F804C0036843EA0C03D0F808C0C068D3
:102220004CEA000018430843106070470423014043
:10223000E030FCFFC06C80B270470246002012689C
:102240000A4200D00120704710B4426822F4807224
:1022500022F0407291F804C00B6842EA0C221A4343
:10226000426082680D4B1A40D1F80CC00B694C7962
:1022700043EA0C03D1F808C04CEA440C43EA0C03CF
:102280001A438260C26A22F47002097D491EC9B2F3
:1022900042EA0151C16210BC70470000FDF7FFC067
:1022A00030B4072509290CD9C468A1F10A0C0CEB3C
:1022B0004C0C05FA0CF5AC4303FA0CF32343C36052
:1022C00009E0046901EB410C05FA0CF5AC4303FA93
:1022D0000CF3234303614FF01F0C072A0CD2436B0E
:1022E000521E02EB82020CFA02FC23EA0C0391401C
:1022F0001943416330BC70470D2A0CD2036BD21FC7
:1023000002EB82020CFA02FC23EA0C03914019430F
:10231000016330BC7047C36A0D3A02EB82020CFACB
:1023200002FC23EA0C0391401943C16230BC7047A0
:10233000816841F0804181607047000010B58CB029
:102340000121084604F08EFE0121080204F0C2FEBD
:1023500020200A9003208DF82C0000248DF82F40B7
:102360000AA9154800F0C0F90121080204F0C0FED6
:1023700000214FF4807004F0BBFE06940994089489
:102380004FF48030079006A8FFF73EFF00948DF8C9
:1023900004408DF805400294049401208DF8140047
:1023A000064C69462046FFF74FFF01212046FFF704
:1023B0001FFF0CB010BD00000000024000200140D3
:1023C00010B582B00121102004F04CFE0C200090CA
:1023D00000208DF8040003208DF8050001248DF8FD
:1023E00007406946064800F07FF9009402208DF806
:1023F00007006946034800F077F902B010BD0000FD
:102400000010024000000240FEE7000038B505461B
:102410000C460020009004F099FF012291026846CA
:1024200004F0E2FE9DF80000A52801D0012200E0A2
:102430000022012C06D0002352EA030128D0A5284F
:1024400002D008E00123F7E7012C04D1C022E10209
:10245000134804F0C9FE1F2000F064FA284606F075
:1024600077FE0028FAD04FF4784000F05BFA0020A5
:1024700005F024F8A520009001229102684604F09E
:10248000DDFEC0224FF40061054804F0D7FE38BDE0
:10249000C0224FF40061024804F0A6FE38BD0000DF
:1024A000B00000207047000001460020034A126877
:1024B0001140002900D0012070470000003C01407D
:1024C000214A83790168002B34D0136823EA010183
:1024D0001160111D0A6803689A430A60017901F1CD
:1024E000804101F59E310A6803681A430A60174B60
:1024F00019680268914319601A1D1168D0F800C06C
:1025000021EA0C0111604179102908D001F18041C4
:1025100001F59E310A680068104308607047196829
:10252000D0F800C041EA0C01196011680068084346
:1025300010607047007900F1804000F59E3002681D
:1025400022EA010101607047003C0140083C014063
:102550002DE9F04106460D46002419A009F070FD52
:102560004FF4FA7008F0BEFA19A009F069FD4FF4B3
:10257000FA7008F0B7FA002D0ED9194F40213846ED
:1025800006F035FA0028F9D02046641C315C384644
:1025900006F0E2FAAC42F1D3282008F0A3FA11A029
:1025A00009F04EFD4FF4966008F09CFA0EA009F079
:1025B00047FDBDE8F0414FF4FA7008F093BA00000F
:1025C00041542B4349504D4F44453D310D0A0000C5
:1025D00041542B43495053454E440D0A000000001E
:1025E000004800402B2B2B0041542B4349504D4FAA
:1025F00044453D300D0A00008000A0F1C040002994
:1026000004D0016841F00101016070470168024A8D
:102610001140016070470000FEFF0F0082684168B2
:1026200003691143C2681A43114342691143826925
:102630001143C2691143026A1143426A1143826A1B
:102640001143C26A1143026B114302689200A2F166
:10265000C04211608168082907D101688900A1F191
:10266000C0410A6842F040020A60416B4B680A6848
:10267000B1F80CC042EA03128B681B0243EA0C4318
:102680001A430B8A42EA03520B7D896942EA0362CC
:1026900011430268521C9200A2F1C0421160C16A4B
:1026A000B1F5804F08D000686FF070418000A0F154
:1026B000C040C0F804117047816B00684B680A681D
:1026C000B1F810C042EA03128B681B0243EA0C53B4
:1026D0001A430B7D896942EA036211438000A0F12D
:1026E000C040C0F8041170472DE9F0010022012616
:1026F000032706FA02FC0B6803EA0C03634538D192
:102700000568530007FA03F4A54305600D79D0F876
:1027100000809D4045EA080505600D79012D01D036
:10272000022D17D18568A54385604D79D0F80880C2
:102730009D4045EA08058560456825EA0C0CC0F80F
:1027400004C0D0F804C08D799540ADB24CEA050CB8
:10275000C0F804C0D0F80CC02CEA040CC0F80CC0BF
:1027600091F807C00CFA03F3D0F80CC043EA0C034D
:10277000C360521C102ABCD3BDE8F00170474B0760
:10278000DB0E9A40C90800EB8100016A4FF00F0C84
:102790000CFA03F399430162016A11430162704725
:1027A0000246002012690A4200D00120704741838E
:1027B000704701837047000010B50A4C014607239B
:1027C00001222046FFF76CFD2046FFF7B1FD0221F4
:1027D0002046FFF732FD0028F9D02046BDE8104022
:1027E000FFF728BD00200140FEE770B504460D4606
:1027F00004F10A0082B2143880B22B46294600F058
:102800006FF905F10A0083B2143881B222462046DE
:10281000BDE8704000F064B92DE9F041ADF5A26D5E
:102820000020CDF80805CDF80C054FF4FE71C2AFBD
:10283000C3A8FDF701FF32484068C290FFF77EFD54
:1028400000240DF5A1652F4E09F028F8A6FB002104
:10285000C908494201EB810100EB410030302855A5
:10286000641C082CF0D3284828A190ED020B8DEDB4
:10287000000B90ED000B82A853EC102BFDF73EFDF2
:1028800082AB0DF5A162254902A8FDF737FD02A82C
:10289000FDF7B3FE3430C6B27F2E06D98DF809633A
:1028A000F0098DF80A03012502E08DF8096300257F
:1028B00000201B492B183B440A5C9A70401C3428AA
:1028C000F8D3002402A8FDF798FE00280FD90DF1D7
:1028D000080818F8040009F041FD2919394481F865
:1028E0003600641C02A8FDF788FEA042F1D8A819A2
:1028F000811CC2A8FFF72CFE0DF5A26DBDE8F0818A
:102900005CF20008CDCCCCCCF008002054313A2544
:10291000342E30662C25342E3066000070F5000809
:10292000DCF200082DE9F04306460024184F3888F1
:10293000798801FB00F5B888A0F5D041043902D1AF
:10294000B87901280ED00021084603F0C9FF04F031
:102950007BF9002D04D90F490E80641CAC42FBD3D7
:10296000BDE8F0830020B8714FF02A09A7F80A905B
:102970004FF02B08A7F80C800021084603F0B0FFA9
:102980000120B871A7F80A80A7F80C90DFE70000D3
:10299000E4040020000008602DE9F04F4F492A238D
:1029A0004FF02B0C898845F210574FF430584FF4F4
:1029B00028594FF448744FF0F00A49F2413B4FF464
:1029C000A07645F210354FF4F072002811D043483C
:1029D0004FF0010E80F806E00680A0F802A05945ED
:1029E00001D0A94243D12C2404814381A0F80CC01A
:1029F0005EE03A484FF0000E80F806E0A0F800A034
:102A00004680594506D0A1F5D04ABAF1040A01D052
:102A1000A9420DD12C2404814381A0F80CC0A1F55A
:102A2000D043043B01D0A9424AD10680428047E00E
:102A3000B94209D1A0F80880A0F80A904FF42C51AF
:102A40008181028044803BE0A1F5C855633D06D0FA
:102A500022210181202141812121818130E02C210D
:102A60000181A0F80AC083810280448028E0A1F59A
:102A7000D04ABAF1040A0BD0B9420FD1A0F80880AD
:102A8000A0F80A904FF42C538381048042800FE019
:102A90002C240481A0F80AC0838109E0A1F5C8575D
:102AA000633F12D02223038121234381202383818A
:102AB000A1F5D043043B01D0A94201D10280468058
:102AC000BDE8F04F002003F0FFBD2C2707814381B4
:102AD000A0F80CC004804280EAE70000E404002073
:102AE0002DE9F04F83B000250026171AA3EB01084B
:102AF00081468A46002F03DD4FF00100019009E076
:102B000003D14FF00000019004E04FF0FF3001903E
:102B1000C7F10007B8F1000F03DD4FF0010000908E
:102B200009E003D14FF00000009004E04FF0FF30C7
:102B30000090C8F10008474501DD3C4600E04446EE
:102B40004FF0000BB4F1FF3F1AD4601C02901FFA43
:102B50008AF11FFA89F000F017F83D444644A54277
:102B600002DD2D1B01988144A64202DD361B009830
:102B700082440BF101001FFA80FB02988345E6DDD9
:102B800003B0BDE8F08F000000B503F0A9FE04F02B
:102B90005BF8024802490088088000BD0000002060
:102BA00000000860F0B504460D4616461F462B4649
:102BB000324629462046FFF793FF3B4622462946E8
:102BC0002046FFF78DFF3B46324639462046FFF749
:102BD00087FF3B46324629463046BDE8F040FFF7C6
:102BE0007FBF2DE9F04F82B0074688460024154686
:102BF0000320A0EB42062A004ED4A8EB050081B2C8
:102C000007EB040A01901FFA8AF0FFF7BDFFA8EB5B
:102C1000040081B207EB050900901FFA89F0FFF765
:102C2000B3FF08EB040B1FFA8BF11FFA89F0FFF7D3
:102C3000ABFF08EB05091FFA89F11FFA8AF0FFF7CD
:102C4000A3FF1FFA89F1A7EB04091FFA89F0FFF728
:102C50009BFFA7EB050A1FFA8BF11FFA8AF0FFF71B
:102C600093FF019881B21FFA89F0FFF78DFF00985A
:102C700081B21FFA8AF0FFF787FF641C002E03DA87
:102C800006EB8400861D05E0601B06EB800000F16A
:102C90000A066D1EAC42B0DD02B0BDE8F08F000048
:102CA0002DE9F04103460C461646524D220AAC4629
:102CB000A888BCF80A70A0F513414FEA13284139DF
:102CC0001CD0A0F5A641103918D0A0F5AA411039A2
:102CD00027D09CF80610BCF800C0A0F5C858ACEB93
:102CE000030CACF1010CB8F1630837D0A0F5D04863
:102CF000B8F1040855D001296AD06BE0384603F0DA
:102D000097FF404603F088FFD8B203F085FFA889FB
:102D100003F08EFF104603F07FFFE0B203F07CFF6C
:102D200060E0384603F084FF404603F075FF688991
:102D3000401C80B203F07CFFD8B203F06DFFA8897D
:102D400003F076FF104603F067FFA889401C80B2AD
:102D500003F06EFFE0B203F05FFF43E009B91FFA32
:102D60008CF3384603F064FF1F0A384603F054FF23
:102D7000D8B203F051FF384603F04EFFD8B203F04B
:102D80004BFFA88903F054FF104603F045FFE0B263
:102D900003F042FF104603F03FFFE0B203F03CFFB8
:102DA00020E0012901D11FFA8CF3384603F040FFDF
:102DB000180A03F031FFD8B203F02EFFA88903F000
:102DC00037FF104603F028FFE0B203F025FF09E0CB
:102DD0001FFA8CF31946384603F040FFA8892146B4
:102DE00003F03CFF044928890880881C0680BDE860
:102DF000F0810000E4040020FEFF07602DE9F843A5
:102E00008146089F98461F4DA888A0F5D043043BF3
:102E100002D1A87901281BD0A2EB0900401C86B280
:102E20000C46444512D8184D2146484603F058FD3B
:102E300003F00AFF0020002E04D92F80401C80B22E
:102E4000B042FAD3601C84B24445EDD9BDE8F883A2
:102E50008C462888811A491E89B2A0EB0900401EC1
:102E600083B20020A8712A266E812B24AC814246B1
:102E700060460097FFF7C2FF0120A8716C81AE8108
:102E8000BDE8F883E4040020000008602DE9F04369
:102E9000A1B00024209401217A2004F0E3F801215C
:102EA000084604F0EDF802261E9601258DF87C50A8
:102EB0008DF87E408DF87D608DF87F501EA9FE480C
:102EC000FFF712FC4EF2B3701E908DF87C608DF807
:102ED0007E4003278DF87D708DF87F50DFF8DC830E
:102EE0001EA94046FFF700FC4FF680701E908DF83B
:102EF0007C608DF87E408DF87D708DF87F50F04EAF
:102F00001EA93046FFF7F0FB0C2200214046FFF7D8
:102F100036FC0C2201214046FFF731FC0C22042133
:102F20004046FFF72CFC0C2205214046FFF727FC0A
:102F30000C2207214046FFF722FC0C2208214046C4
:102F4000FFF71DFC0C2209214046FFF718FC0C225C
:102F50000A214046FFF713FC0C220D214046FFF7E3
:102F60000EFC0C220E214046FFF709FC0C220F211B
:102F70004046FFF704FC0C2207213046FFF7FFFB19
:102F80000C2208213046FFF7FAFB0C2209213046BB
:102F9000FFF7F5FB0C220A213046FFF7F0FB0C226D
:102FA0000B213046FFF7EBFB0C2211463046FFF7B2
:102FB000E6FB0C220D213046FFF7E1FB0C220E212F
:102FC0003046FFF7DCFB0C220F213046FFF7D7FB22
:102FD0000F20089009943C200A900B940C940D94B7
:102FE0000E94092001900294082003900494059403
:102FF000069407940F941094119410201290139437
:103000001594149416941794000218901994800043
:103010001A901B9408A81C9001A81D900FA8FFF7F8
:10302000FDFA01210020FFF7E7FA322007F05AFDF0
:103030000121002003F012FE322007F053FD002092
:1030400003F00EFBDFF87C82A8F804004FF6FF794E
:1030500049F2413745F2103345F2105241F66314FC
:1030600046F60406FF2804D3484502D0B0F5134FB6
:103070007DD1D32003F0DCFD03F0E8FAA8F80400CA
:1030800003F0E4FAA8F8040003F0E0FA09EA0020EB
:10309000A8F8040003F0DAFAB8F804100843A8F816
:1030A0000400B84279D0BF2003F0C2FD03F0CEFA8D
:1030B000A8F8040003F0CAFAA8F8040003F0C6FA5E
:1030C000A8F8040003F0C2FA09EA0020A8F80400F6
:1030D00003F0BCFAB8F804100843A8F80400B042A2
:1030E0005BD0D42003F0A4FD03F0B0FAA8F80400EC
:1030F00003F0ACFAA8F8040003F0A8FA09EA0020EB
:10310000A8F8040003F0A2FAB8F804100843A8F8DD
:103110000400984241D04FF45A4003F089FD03F077
:1031200095FAA8F804004FF45B4003F081FD03F02A
:103130008DFA09EA0020A8F804004FF45C4003F07F
:1031400077FD03F083FAB8F804100843A8F80400E8
:10315000B0F5004F01D1A8F80420B8F8040090425F
:103160001BD0A12003F064FD03F070FA00E014E02E
:10317000A8F8040003F06AFA09EA0020A8F804009D
:1031800003F064FAB8F804100843A8F80400A0F5A6
:10319000AE41613901D1A8F80440B8F804004FF0FD
:1031A00020414CF2055CB84205D0984203D09042D1
:1031B00001D0A04218D1D1F81C8128F00F08C1F825
:1031C0001C81D1F81C8128F47068C1F81C81D1F8E9
:1031D0001C8148F00308C1F81C81D1F81C8148F417
:1031E0000078C1F81C811BE0B04201D0604517D1C6
:1031F000D1F81C8128F00F08C1F81C81D1F81C817E
:1032000028F47068C1F81C81D1F81C8148F00A08C4
:10321000C1F81C81D1F81C8148F44068C1F81C81B8
:10322000B84240F01F81CF2003F002FD002003F0E0
:10323000F3FCC12003F0F0FC302003F0EDFCED20A6
:1032400003F0F6FC642003F0E7FC032003F0E4FC49
:10325000122003F0E1FC812003F0DEFCE82003F003
:10326000E7FC852003F0D8FC102003F0D5FC7A2081
:1032700003F0D2FCCB2003F0DBFC392003F0CCFCC4
:103280002C2003F0C9FC002003F0C6FC342003F01E
:10329000C3FC022003F0C0FCF72003F0C9FC20208F
:1032A00003F0BAFCEA2003F0C3FC002003F0B4FCF6
:1032B000002003F0B1FC07E000040240000C0240D3
:1032C00000100240E4040020C02003F0B1FC1B20E9
:1032D00003F0A2FCC12003F0ABFC012003F09CFC36
:1032E000C52003F0A5FC302003F096FC302003F04D
:1032F00093FCC72003F09CFCB72003F08DFC362024
:1033000003F096FC482003F087FC3A2003F090FC81
:10331000552003F081FCB12003F08AFC002003F06B
:103320007BFC1A2003F078FCB62003F081FC0A2015
:1033300003F072FCA22003F06FFCF22003F078FC93
:10334000002003F069FC262003F072FC012003F04A
:1033500063FCE02003F06CFC0F2003F05DFC2A20EE
:1033600003F05AFC282003F057FC082003F054FC1B
:103370000E2003F051FC082003F04EFC542003F013
:103380004BFCA92003F048FC432003F045FC0A2035
:1033900003F042FC0F2003F03FFC002003F03CFC54
:1033A000002003F039FC002003F036FC002003F07D
:1033B00033FCE12003F03CFC002003F02DFC152041
:1033C00003F02AFC172003F027FC072003F024FC5D
:1033D000112003F021FC062003F01EFC2B2003F03B
:1033E0001BFC562003F018FC3C2003F015FC0520C4
:1033F00003F012FC102003F00FFC0F2003F00CFC74
:103400003F2003F009FC3F2003F006FC0F2003F0EF
:1034100003FC2B2003F00CFC002003F0FDFB00203C
:1034200003F0FAFB012003F0F7FB3F2003F0F4FB6D
:103430002A2003F0FDFB002003F0EEFB002003F048
:10344000EBFB002003F0E8FBEF2003F0E5FB11208D
:1034500003F0EEFB782007F045FB292003F0E8FBA2
:1034600002F07CBFB0427CD1112003F0E1FB1420BC
:1034700007F038FBD02003F0DBFB072003F0CCFB88
:10348000422003F0C9FB1D2003F0C6FBD12003F04E
:10349000CFFB002003F0C0FB1A2003F0BDFB092086
:1034A00003F0BAFBD22003F0C3FB012003F0B4FB0E
:1034B000222003F0B1FBC02003F0BAFB102003F080
:1034C000ABFB3B2003F0A8FB002003F0A5FB022090
:1034D00003F0A2FB112003F09FFBC52003F0A8FB23
:1034E000032003F099FBC82003F0A2FB002003F0A7
:1034F00093FB252003F090FB212003F08DFB05209A
:1035000003F08AFB002003F087FB0A2003F084FB12
:10351000652003F081FB252003F07EFB772003F07C
:103520007BFB502003F078FB0F2003F075FB00209D
:1035300003F072FBF82003F07BFB012003F06CFB2F
:10354000FE2003F075FB002003F066FB022003F071
:1035500063FB202003F06CFB362003F069FB08209E
:1035600000E02DE003F058FB3A2003F061FB55200A
:1035700003F052FB2B2003F05BFB002003F04CFB1D
:10358000002003F049FB012003F046FB3F2003F03D
:1035900043FB2A2003F04CFB002003F03DFB0020FE
:1035A00003F03AFB012003F037FBDF2003F034FB8C
:1035B000782007F097FA292003F03AFB02F0CEBEFC
:1035C000984240F07987ED2003F032FB012003F0B0
:1035D00023FBFE2003F020FBEE2003F029FBDE207E
:1035E00003F01AFB212003F017FBF12003F020FB6E
:1035F000012003F011FBDF2003F01AFB102003F081
:103600000BFBC42003F014FB8F2003F005FBC62046
:1036100003F00EFB002003F0FFFAE22003F0FCFAB7
:10362000E22003F0F9FAE22003F0F6FABF2003F0FB
:10363000FFFAAA2003F0F0FAB02003F0F9FA0D2007
:1036400003F0EAFA002003F0E7FA0D2003F0E4FAB1
:10365000002003F0E1FA112003F0DEFA002003F06D
:10366000DBFA192003F0D8FA002003F0D5FA212064
:1036700003F0D2FA002003F0CFFA2D2003F0CCFAA9
:10368000002003F0C9FA3D2003F0C6FA002003F041
:10369000C3FA5D2003F0C0FA002003F0BDFA5D20FC
:1036A00003F0BAFA002003F0B7FAB12003F0C0FA31
:1036B000802003F0B1FA002003F0AEFA8B2003F073
:1036C000ABFA002003F0A8FA962003F0A5FA002038
:1036D00003F0A2FAB22003F0ABFA002003F09CFA48
:1036E000002003F099FA022003F096FA002003F07C
:1036F00093FA032003F090FA002003F08DFAB32030
:1037000003F096FA002003F087FA002003F084FA11
:10371000002003F081FA002003F07EFA002003F07D
:103720007BFA002003F078FA002003F075FA0020FD
:1037300003F072FA002003F06FFA002003F06CFA35
:10374000002003F069FA002003F066FA002003F07D
:1037500063FA002003F060FA002003F05DFA002015
:1037600003F05AFA002003F057FA002003F054FA4D
:10377000002003F051FA002003F04EFA002003F07D
:103780004BFA002003F048FA002003F045FA00202D
:1037900003F042FAB42003F04BFA8B2003F03CFA1A
:1037A000002003F039FA962003F036FA002003F0E7
:1037B00033FAA12003F030FA002003F02DFAB520EF
:1037C00003F036FA022003F027FA002003F024FA6F
:1037D000032003F021FA002003F01EFA042003F076
:1037E0001BFA002003F018FAB62003F021FA00209B
:1037F00003F012FA002003F00FFAB72003F018FAD2
:10380000002003F009FA002003F006FA3F2003F03D
:1038100003FA002003F000FA5E2003F0FDF9002017
:1038200003F0FAF9642003F0F7F9002003F0F4F94B
:103830008C2003F0F1F9002003F0EEF9AC2003F046
:10384000EBF9002003F0E8F9DC2003F0E5F90020B3
:1038500003F0E2F9702003F0DFF9002003F0DCF957
:10386000902003F0D9F9002003F0D6F9EB2003F003
:10387000D3F9002003F0D0F9DC2003F0CDF90020CB
:1038800003F0CAF9B82003F0D3F9002003F0C4F91B
:10389000002003F0C1F9002003F0BEF9002003F07E
:1038A000BBF9002003F0B8F9002003F0B5F90020BF
:1038B00003F0B2F9002003F0AFF9BA2003F0B8F931
:1038C000242003F0A9F9002003F0A6F9002003F05A
:1038D000A3F9002003F0A0F9C12003F0A9F92020EA
:1038E00003F09AF9002003F097F9542003F094F9BB
:1038F000002003F091F9FF2003F08EF9002003F07F
:103900008BF9C22003F094F90A2003F085F9002016
:1039100003F082F9042003F07FF9002003F07CF922
:10392000C32003F085F93C2003F076F9002003F072
:1039300073F93A2003F070F9002003F06DF9392093
:1039400003F06AF9002003F067F9372003F064F907
:10395000002003F061F93C2003F05EF9002003F041
:103960005BF9362003F058F9002003F055F93220B6
:1039700003F052F9002003F04FF92F2003F04CF927
:10398000002003F049F92C2003F046F9002003F051
:1039900043F9292003F040F9002003F03DF92620E7
:1039A00003F03AF9002003F037F9242003F034F94A
:1039B000002003F031F9242003F02EF9002003F059
:1039C0002BF9232003F028F9002003F025F93C20EF
:1039D00003F022F9002003F01FF9362003F01CF950
:1039E000002003F019F9322003F016F9002003F04B
:1039F00013F92F2003F010F9002003F00DF92C200B
:103A000003F00AF9002003F007F9292003F004F974
:103A1000002003F001F9262003F0FEF8002003F057
:103A2000FBF8242003F0F8F8002003F0F5F8242038
:103A300003F0F2F8002003F0EFF8232003F0ECF895
:103A4000002003F0E9F8C42003F0F2F8622003F04C
:103A5000E3F8002003F0E0F8052003F0DDF8002093
:103A600003F0DAF8842003F0D7F8002003F0D4F84C
:103A7000F02003F0D1F8002003F0CEF8182003F076
:103A8000CBF8002003F0C8F8A42003F0C5F800200C
:103A900003F0C2F8182003F0BFF8002003F0BCF8D0
:103AA000502003F0B9F8002003F0B6F80C2003F022
:103AB000B3F8002003F0B0F8172003F0ADF80020B1
:103AC00003F0AAF8952003F0A7F8002003F0A4F86B
:103AD000F32003F0A1F8002003F09EF8E62003F0A5
:103AE0009BF8002003F098F8C52003F0A1F83220DD
:103AF00003F092F8002003F08FF8442003F08CF8D4
:103B0000002003F089F8652003F086F8002003F018
:103B100083F8762003F080F8002003F07DF88820F9
:103B200003F07AF8002003F077F8C62003F080F85D
:103B3000202003F071F8002003F06EF8172003F046
:103B40006BF8002003F068F8012003F065F800200E
:103B500003F062F8C72003F06BF8002003F05CF874
:103B6000002003F059F8002003F056F8002003F07D
:103B700053F8C82003F05CF8002003F04DF8002053
:103B800003F04AF8002003F047F8002003F044F85F
:103B9000C92003F04DF8002003F03EF8002003F0A8
:103BA0003BF8002003F038F8002003F035F800203F
:103BB00003F032F8002003F02FF8002003F02CF877
:103BC000002003F029F8002003F026F8002003F07D
:103BD00023F8002003F020F8002003F01DF8002057
:103BE00003F01AF8002003F017F8002003F014F88F
:103BF000002003F011F8E02003F01AF8162003F07B
:103C00000BF8002003F008F81C2003F005F8002052
:103C100003F002F8212002F0FFFF002002F0FCFF79
:103C2000362002F0F9FF002002F0F6FF462002F0F5
:103C3000F3FF002002F0F0FF522002F0EDFF002021
:103C400002F0EAFF642002F0E7FF002002F0E4FF48
:103C50007A2002F0E1FF002002F0DEFF8B2002F06C
:103C6000DBFF002002F0D8FF992002F0D5FF0020F2
:103C700002F0D2FFA82002F0CFFF002002F0CCFF1C
:103C8000B92002F0C9FF002002F0C6FFC42002F0F4
:103C9000C3FF002002F0C0FFCA2002F0BDFF0020D9
:103CA00002F0BAFFD22002F0B7FF002002F0B4FF0A
:103CB000D92002F0B1FF002002F0AEFFE02002F0B8
:103CC000ABFF002002F0A8FFF32002F0A5FF0020C8
:103CD00002F0A2FFE12002F0ABFF162002F09CFFF1
:103CE000002002F099FF1C2002F096FF002002F055
:103CF00093FF222002F090FF002002F08DFF36207B
:103D000002F08AFF002002F087FF452002F084FFC6
:103D1000002002F081FF522002F07EFF002002F01E
:103D20007BFF642002F078FF002002F075FF7A200C
:103D300002F072FF002002F06FFF8B2002F06CFF98
:103D4000002002F069FF992002F066FF002002F0D7
:103D500063FFA82002F060FF002002F05DFFB920A1
:103D600002F05AFF002002F057FFC42002F054FF77
:103D7000002002F051FFCA2002F04EFF002002F0A6
:103D80004BFFD22002F048FF002002F045FFD82070
:103D900002F042FF002002F03FFFE02002F03CFF73
:103DA000002002F039FFF32002F036FF002002F07D
:103DB00033FFE22002F03CFF052002F02DFF00203F
:103DC00002F02AFF0B2002F027FF002002F024FF60
:103DD0001B2002F021FF002002F01EFF342002F021
:103DE0001BFF002002F018FF442002F015FF002006
:103DF00002F012FF4F2002F00FFF002002F00CFF34
:103E0000612002F009FF002002F006FF792002F095
:103E100003FF002002F000FF882002F0FDFE0020DA
:103E200002F0FAFE972002F0F7FE002002F0F4FE06
:103E3000A62002F0F1FE002002F0EEFEB72002F014
:103E4000EBFE002002F0E8FEC22002F0E5FE0020BA
:103E500002F0E2FEC72002F0DFFE002002F0DCFEEE
:103E6000D12002F0D9FE002002F0D6FED62002F0CA
:103E7000D3FE002002F0D0FEDD2002F0CDFE0020B7
:103E800002F0CAFEF32002F0C7FE002002F0C4FEDA
:103E9000E32002F0CDFE052002F0BEFE002002F07D
:103EA000BBFE0A2002F0B8FE002002F0B5FE1C2086
:103EB00002F0B2FE002002F0AFFE332002F0ACFEB2
:103EC000002002F0A9FE442002F0A6FE002002F02D
:103ED000A3FE502002F0A0FE002002F09DFE622012
:103EE00002F09AFE002002F097FE782002F094FE85
:103EF000002002F091FE882002F08EFE002002F0E9
:103F00008BFE972002F088FE002002F085FEA6209E
:103F100002F082FE002002F07FFEB72002F07CFE5D
:103F2000002002F079FEC22002F076FE002002F0AE
:103F300073FEC72002F070FE002002F06DFED1205B
:103F400002F06AFE002002F067FED52002F064FE57
:103F5000002002F061FEDD2002F05EFE002002F093
:103F60005BFEF32002F058FE002002F055FEE42034
:103F700002F05EFE012002F04FFE002002F04CFE37
:103F8000012002F049FE002002F046FE022002F06D
:103F900043FE002002F040FE2A2002F03DFE0020F9
:103FA00002F03AFE3C2002F037FE002002F034FE20
:103FB0004B2002F031FE002002F02EFE5D2002F0C8
:103FC0002BFE002002F028FE742002F025FE0020C7
:103FD00002F022FE842002F01FFE002002F01CFEF0
:103FE000932002F019FE002002F016FEA22002F03B
:103FF00013FE002002F010FEB32002F00DFE0020A0
:1040000002F00AFEBE2002F007FE002002F004FECD
:10401000C42002F001FE002002F0FEFDCD2002F0DF
:10402000FBFD002002F0F8FDD32002F0F5FD00209A
:1040300002F0F2FDDD2002F0EFFD002002F0ECFDC9
:10404000F32002F0E9FD002002F0E6FDE52002F099
:10405000EFFD002002F0E0FD002002F0DDFD002079
:1040600002F0DAFD002002F0D7FD022002F0D4FDBC
:10407000002002F0D1FD292002F0CEFD002002F048
:10408000CBFD3C2002F0C8FD002002F0C5FD4B2016
:1040900002F0C2FD002002F0BFFD5D2002F0BCFD79
:1040A000002002F0B9FD742002F0B6FD002002F0FD
:1040B000B3FD842002F0B0FD002002F0ADFD93209E
:1040C00002F0AAFD002002F0A7FDA22002F0A4FD4C
:1040D000002002F0A1FDB32002F09EFD002002F0BE
:1040E0009BFDBE2002F098FD002002F095FDC4204B
:1040F00002F092FD002002F08FFDCD2002F08CFD39
:10410000002002F089FDD32002F086FD002002F09D
:1041100083FDDC2002F080FD002002F07DFDF32015
:1041200002F07AFD002002F077FDE62002F080FD2B
:10413000112002F071FD002002F06EFD342002F02B
:104140006BFD002002F068FD562002F065FD0020A6
:1041500002F062FD762002F05FFD002002F05CFDBF
:10416000772002F059FD002002F056FD662002F093
:1041700053FD002002F050FD882002F04DFD00208C
:1041800002F04AFD992002F047FD002002F044FDB4
:10419000BB2002F041FD002002F03EFD992002F01C
:1041A0003BFD002002F038FD662002F035FD0020C6
:1041B00002F032FD552002F02FFD002002F02CFD10
:1041C000552002F029FD002002F026FD452002F0D6
:1041D00023FD002002F020FD432002F01DFD002001
:1041E00002F01AFD442002F017FD002002F014FD39
:1041F000E72002F01DFD322002F00EFD002002F04B
:104200000BFD552002F008FD002002F005FD762090
:1042100002F002FD002002F0FFFC662002F0FCFC30
:10422000002002F0F9FC672002F0F6FC002002F00A
:10423000F3FC672002F0F0FC002002F0EDFC872088
:1042400002F0EAFC002002F0E7FC992002F0E4FC16
:10425000002002F0E1FCBB2002F0DEFC002002F0B6
:10426000DBFC992002F0D8FC002002F0D5FC77207E
:1042700002F0D2FC002002F0CFFC442002F0CCFC83
:10428000002002F0C9FC562002F0C6FC002002F01B
:10429000C3FC232002F0C0FC002002F0BDFC332050
:1042A00002F0BAFC002002F0B7FC452002F0B4FC9A
:1042B000002002F0B1FCE82002F0BAFC002002F07D
:1042C000ABFC002002F0A8FC992002F0A5FC002025
:1042D00002F0A2FC872002F09FFC002002F09CFC70
:1042E000882002F099FC002002F096FC772002F072
:1042F00093FC002002F090FC662002F08DFC002070
:1043000002F08AFC882002F087FC002002F084FC86
:10431000AA2002F081FC002002F07EFCBB2002F00B
:104320007BFC002002F078FC992002F075FC002054
:1043300002F072FC662002F06FFC002002F06CFCC0
:10434000552002F069FC002002F066FC552002F0C6
:1043500063FC002002F060FC442002F05DFC0020C1
:1043600002F05AFC442002F057FC002002F054FCFA
:10437000552002F051FC002002F04EFCE92002F032
:1043800057FCAA2002F048FC002002F045FC002067
:1043900002F042FC002002F03FFC002002F048FC4A
:1043A000AA2002F039FCCF2002F042FC002002F0EB
:1043B00033FC002002F030FC002002F02DFC002035
:1043C00002F02AFC002002F027FC002002F024FC6E
:1043D000002002F021FC002002F01EFC002002F070
:1043E0001BFC002002F018FC002002F015FC00204D
:1043F00002F012FC002002F00FFC002002F00CFC86
:10440000002002F009FC002002F006FC002002F06F
:1044100003FCF02002F00CFC002002F0FDFB502019
:1044200002F0FAFB002002F0F7FB002002F0F4FBA0
:10443000002002F0F1FBF32002F0FAFB002002F072
:10444000EBFBF92002F0F4FB062002F0E5FB102064
:1044500002F0E2FB292002F0DFFB002002F0DCFB8F
:104460003A2002F0E5FB552002F0D6FB112002F0C5
:10447000DFFB642006F036FB292002F0D9FB352053
:1044800002F0D6FB002002F0C7FB512002F0D0FB67
:10449000FF2002F0C1FB532002F0CAFB2C2002F0E7
:1044A000BBFB552002F0C4FB822002F0B5FB2C20A0
:1044B00002F0BEFB01F052BF904240F07E875521D2
:1044C0004FF4704002F0CAFBAA214FF2010002F043
:1044D000C5FB52214FF2020002F0C0FB08214FF24F
:1044E000030002F0BBFB01214FF2040002F0B6FB17
:1044F0000D214FF4304002F0B1FB0D214BF20100D1
:1045000002F0ACFB0D214BF2020002F0A7FB3421BC
:104510004FF4364002F0A2FB34214BF2016002F06E
:104520009DFB34214BF2026002F098FB0D214FF409
:10453000314002F093FB0D214BF2011002F08EFB93
:104540000D214BF2021002F089FB34214FF4374069
:1045500002F084FB34214BF2017002F07FFB342126
:104560004BF2027002F07AFB00214FF4324002F06D
:1045700075FB00214BF2012002F070FB00214BF291
:10458000022002F06BFB24214FF4384002F066FB5E
:1045900024214BF6010002F061FB24214BF60200BE
:1045A00002F05CFB01214FF43F4002F057FB0F216A
:1045B0004FF4334002F052FB0F214BF2013002F076
:1045C0004DFB0F214BF2023002F048FB34214FF437
:1045D000394002F043FB34214BF6011002F03EFB60
:1045E00034214BF6021002F039FB08214FF435401C
:1045F00002F034FB08214BF2015002F02FFB08219E
:104600004BF2025002F02AFB03214FF4424002F029
:1046100025FB24214FF43A4002F020FB24214BF6E5
:10462000012002F01BFB24214BF6022002F016FBB6
:1046300000214FF43C4002F011FB78214BF6014081
:1046400002F00CFB00214BF6024002F007FB0021B8
:104650004FF43D4002F002FB78214BF6015002F08E
:10466000FDFA00214BF6025002F0F8FA00214FF457
:104670003E4002F0F3FA64214BF6016002F0EEFADC
:1046800000214FF4514002F0E9FA33214DF20110BC
:1046900002F0E4FA00214DF2021002F0DFFA3421B8
:1046A0004DF2031002F0DAFA00214DF2041002F08C
:1046B000D5FA3A214DF2051002F0D0FA00214DF260
:1046C000061002F0CBFA4A214DF2071002F0C6FAAA
:1046D00000214DF2081002F0C1FA5C214DF20910E0
:1046E00002F0BCFA00214DF20A1002F0B7FA812163
:1046F0004DF20B1002F0B2FA00214DF20C1002F054
:10470000ADFAA6214DF20D1002F0A8FA00214DF2EB
:104710000E1002F0A3FAE5214DF20F1002F09EFAFE
:1047200001214DF2101002F099FA13214DF21110EF
:1047300002F094FA01214DF2121002F08FFA542186
:104740004DF2131002F08AFA01214DF2141002F01A
:1047500085FA82214DF2151002F080FA01214DF206
:10476000161002F07BFACA214DF2171002F076FA09
:1047700002214DF2181002F071FA00214DF21910C9
:1047800002F06CFA02214DF21A1002F067FA0121D0
:104790004DF21B1002F062FA02214DF21C1002F0E1
:1047A0005DFA34214DF21D1002F058FA02214DF24B
:1047B0001E1002F053FA67214DF21F1002F04EFA5C
:1047C00002214DF2201002F049FA84214DF221100D
:1047D00002F044FA02214DF2221002F03FFAA42125
:1047E0004DF2231002F03AFA02214DF2241002F0A9
:1047F00035FAB7214DF2251002F030FA02214DF2C0
:10480000261002F02BFACF214DF2271002F026FAE3
:1048100002214DF2281002F021FADE214DF229107A
:1048200002F01CFA02214DF22A1002F017FAF221CE
:104830004DF22B1002F012FA02214DF22C1002F070
:104840000DFAFE214DF22D1002F008FA03214DF26F
:104850002E1002F003FA10214DF22F1002F0FEF993
:1048600003214DF2301002F0F9F933214DF23110ED
:1048700002F0F4F903214DF2321002F0EFF96D214C
:104880004DF2331002F0EAF900214FF4524002F0E9
:10489000E5F933214DF2012002F0E0F900214DF25B
:1048A000022002F0DBF934214DF2032002F0D6F9A8
:1048B00000214DF2042002F0D1F93A214DF20520F9
:1048C00002F0CCF900214DF2062002F0C7F94A218E
:1048D0004DF2072002F0C2F900214DF2082002F04B
:1048E000BDF95C214DF2092002F0B8F900214DF22A
:1048F0000A2002F0B3F981214DF20B2002F0AEF94B
:1049000000214DF20C2002F0A9F9A6214DF20D2054
:1049100002F0A4F900214DF20E2002F09FF9E521EA
:104920004DF20F2002F09AF901214DF2102002F011
:1049300095F913214DF2112002F090F901214DF269
:10494000122002F08BF954214DF2132002F086F967
:1049500001214DF2142002F081F982214DF215203F
:1049600002F07CF901214DF2162002F077F9CA21FC
:104970004DF2172002F072F902214DF2182002F0D8
:104980006DF900214DF2192002F068F902214DF273
:104990001A2002F063F901214DF21B2002F05EF9AA
:1049A00002214DF21C2002F059F934214DF21D2054
:1049B00002F054F902214DF21E2002F04FF9672156
:1049C0004DF21F2002F04AF902214DF2202002F0A0
:1049D00045F984214DF2212002F040F902214DF2E7
:1049E000222002F03BF9A4214DF2232002F036F9F7
:1049F00002214DF2242002F031F9B7214DF2252099
:104A000002F02CF902214DF2262002F027F9CF21E5
:104A10004DF2272002F022F902214DF2282002F067
:104A20001DF9DE214DF2292002F018F902214DF284
:104A30002A2002F013F9F2214DF22B2002F00EF998
:104A400002214DF22C2002F009F9FE214DF22D2019
:104A500002F004F903214DF22E2002F0FFF810219C
:104A60004DF22F2002F0FAF803214DF2302002F02F
:104A7000F5F833214DF2312002F0F0F803214DF228
:104A8000322002F0EBF86D214DF2332002F0E6F80F
:104A900000214FF4534002F0E1F833214DF2013090
:104AA00002F0DCF800214DF2023002F0D7F8342198
:104AB0004DF2033002F0D2F800214DF2043002F042
:104AC000CDF83A214DF2053002F0C8F800214DF240
:104AD000063002F0C3F84A214DF2073002F0BEF86A
:104AE00000214DF2083002F0B9F85C214DF2093096
:104AF00002F0B4F800214DF20A3002F0AFF8812143
:104B00004DF20B3002F0AAF800214DF20C3002F009
:104B1000A5F8A6214DF20D3002F0A0F800214DF2CB
:104B20000E3002F09BF8E5214DF20F3002F096F8BE
:104B300001214DF2103002F091F813214DF21130A5
:104B400002F08CF801214DF2123002F087F8542166
:104B50004DF2133002F082F801214DF2143002F0D0
:104B60007DF882214DF2153002F078F801214DF2E6
:104B7000163002F073F8CA214DF2173002F06EF8C9
:104B800002214DF2183002F069F800214DF219307F
:104B900002F064F802214DF21A3002F05FF80121B0
:104BA0004DF21B3002F05AF802214DF21C3002F097
:104BB00055F834214DF21D3002F050F802214DF22B
:104BC0001E3002F04BF867214DF21F3002F046F81C
:104BD00002214DF2203002F041F884214DF22130C3
:104BE00002F03CF802214DF2223002F037F8A42105
:104BF0004DF2233002F032F802214DF2243002F05F
:104C00002DF8B7214DF2253002F028F802214DF29F
:104C1000263002F023F8CF214DF2273002F01EF8A3
:104C200002214DF2283002F019F8DE214DF2293030
:104C300002F014F802214DF22A3002F00FF8F221AE
:104C40004DF22B3002F00AF802214DF22C3002F026
:104C500005F8FE214DF22D3002F000F803214DF24F
:104C60002E3001F0FBFF10214DF22F3001F0F6FF46
:104C700003214DF2303001F0F1FF33214DF231309C
:104C800001F0ECFF03214DF2323001F0E7FF6D211E
:104C90004DF2333001F0E2FF00214FF4544001F0B7
:104CA000DDFF33214DF2014001F0D8FF00214DF22C
:104CB000024001F0D3FF34214DF2034001F0CEFF5A
:104CC00000214DF2044001F0C9FF3A214DF20540A8
:104CD00001F0C4FF00214DF2064001F0BFFF4A2160
:104CE0004DF2074001F0BAFF00214DF2084001F0FB
:104CF000B5FF5C214DF2094001F0B0FF00214DF2FB
:104D00000A4001F0ABFF81214DF20B4001F0A6FFFC
:104D100000214DF20C4001F0A1FFA6214DF20D4003
:104D200001F09CFF00214DF20E4001F097FFE521BC
:104D30004DF20F4001F092FF01214DF2104001F0C1
:104D40008DFF13214DF2114001F088FF01214DF23A
:104D5000124001F083FF54214DF2134001F07EFF19
:104D600001214DF2144001F079FF82214DF21540EE
:104D700001F074FF01214DF2164001F06FFFCA21CE
:104D80004DF2174001F06AFF02214DF2184001F088
:104D900065FF00214DF2194001F060FF02214DF244
:104DA0001A4001F05BFF01214DF21B4001F056FF5C
:104DB00002214DF21C4001F051FF34214DF21D4003
:104DC00001F04CFF02214DF21E4001F047FF672128
:104DD0004DF21F4001F042FF02214DF2204001F050
:104DE0003DFF84214DF2214001F038FF02214DF2B8
:104DF000224001F033FFA4214DF2234001F02EFFA9
:104E000002214DF2244001F029FFB7214DF2254047
:104E100001F024FF02214DF2264001F01FFFCF21B7
:104E20004DF2274001F01AFF02214DF2284001F017
:104E300015FFDE214DF2294001F010FF02214DF255
:104E40002A4001F00BFFF2214DF22B4001F006FF4A
:104E500002214DF22C4001F001FFFE214DF22D40C8
:104E600001F0FCFE03214DF22E4001F0F7FE10216F
:104E70004DF22F4001F0F2FE03214DF2304001F0DF
:104E8000EDFE33214DF2314001F0E8FE03214DF2F9
:104E9000324001F0E3FE6D214DF2334001F0DEFEC1
:104EA00000214FF4554001F0D9FE33214DF201505D
:104EB00001F0D4FE00214DF2025001F0CFFE34216A
:104EC0004DF2035001F0CAFE00214DF2045001F0F2
:104ED000C5FE3A214DF2055001F0C0FE00214DF211
:104EE000065001F0BBFE4A214DF2075001F0B6FE1C
:104EF00000214DF2085001F0B1FE5C214DF2095045
:104F000001F0ACFE00214DF20A5001F0A7FE812114
:104F10004DF20B5001F0A2FE00214DF20C5001F0B9
:104F20009DFEA6214DF20D5001F098FE00214DF29C
:104F30000E5001F093FEE5214DF20F5001F08EFE70
:104F400001214DF2105001F089FE13214DF2115054
:104F500001F084FE01214DF2125001F07FFE542138
:104F60004DF2135001F07AFE01214DF2145001F080
:104F700075FE82214DF2155001F070FE01214DF2B7
:104F8000165001F06BFECA214DF2175001F066FE7B
:104F900002214DF2185001F061FE00214DF219502E
:104FA00001F05CFE02214DF21A5001F057FE012182
:104FB0004DF21B5001F052FE02214DF21C5001F047
:104FC0004DFE34214DF21D5001F048FE02214DF2FC
:104FD0001E5001F043FE67214DF21F5001F03EFECE
:104FE00002214DF2205001F039FE84214DF2215072
:104FF00001F034FE02214DF2225001F02FFEA421D7
:105000004DF2235001F02AFE02214DF2245001F00E
:1050100025FEB7214DF2255001F020FE02214DF270
:10502000265001F01BFECF214DF2275001F016FE55
:1050300002214DF2285001F011FEDE214DF22950DF
:1050400001F00CFE02214DF22A5001F007FEF22180
:105050004DF22B5001F002FE02214DF22C5001F0D6
:10506000FDFDFE214DF22D5001F0F8FD03214DF222
:105070002E5001F0F3FD10214DF22F5001F0EEFD06
:1050800003214DF2305001F0E9FD33214DF2315052
:1050900001F0E4FD03214DF2325001F0DFFD6D21FE
:1050A0004DF2335001F0DAFD00214FF4564001F08B
:1050B000D5FD33214DF2016001F0D0FD00214DF20C
:1050C000026001F0CBFD34214DF2036001F0C6FD1A
:1050D00000214DF2046001F0C1FD3A214DF205605E
:1050E00001F0BCFD00214DF2066001F0B7FD4A2140
:1050F0004DF2076001F0B2FD00214DF2086001F0B1
:10510000ADFD5C214DF2096001F0A8FD00214DF2DA
:105110000A6001F0A3FD81214DF20B6001F09EFDBC
:1051200000214DF20C6001F099FDA6214DF20D60B9
:1051300001F094FD00214DF20E6001F08FFDE5219C
:105140004DF20F6001F08AFD01214DF2106001F077
:1051500085FD13214DF2116001F080FD01214DF21A
:10516000126001F07BFD54214DF2136001F076FDD9
:1051700001214DF2146001F071FD82214DF21560A4
:1051800001F06CFD01214DF2166001F067FDCA21AE
:105190004DF2176001F062FD02214DF2186001F03E
:1051A0005DFD00214DF2196001F058FD02214DF224
:1051B0001A6001F053FD01214DF21B6001F04EFD1C
:1051C00002214DF21C6001F049FD34214DF21D60B9
:1051D00001F044FD02214DF21E6001F03FFD672108
:1051E0004DF21F6001F03AFD02214DF2206001F006
:1051F00035FD84214DF2216001F030FD02214DF298
:10520000226001F02BFDA4214DF2236001F026FD68
:1052100002214DF2246001F021FDB7214DF22560FD
:1052200001F01CFD02214DF2266001F017FDCF2197
:105230004DF2276001F012FD02214DF2286001F0CD
:105240000DFDDE214DF2296001F008FD02214DF235
:105250002A6001F003FDF2214DF22B6001F0FEFC0B
:1052600002214DF22C6001F0F9FCFE214DF22D607F
:1052700001F0F4FC03214DF22E6001F0EFFC10214F
:105280004DF22F6001F0EAFC03214DF2306001F095
:10529000E5FC33214DF2316001F0E0FC03214DF2D9
:1052A000326001F0DBFC6D214DF2336001F0D6FC81
:1052B00055214FF4704001F0D1FCAA214FF20100BA
:1052C00001F0CCFC52214FF2020001F0C7FC082192
:1052D0004FF2030001F0C2FC00214FF2040001F084
:1052E000BDFCCC214FF4314001F0B8FC00214BF261
:1052F000011001F0B3FC05214FF4364001F0AEFC83
:1053000070214FF4374001F0A9FC70214BF201707D
:1053100001F0A4FC01214FF4384001F09FFC03216F
:105320004BF6010001F09AFC03214BF6020001F05C
:1053300095FC03214BF6030001F090FC02214FF491
:105340003C4001F08BFC00214BF6014001F086FC53
:1053500000214BF6024001F081FCD0214FF449407E
:1053600001F07CFC02214CF6011001F077FC502189
:105370004CF6021001F072FC50214CF6031001F0C3
:105380006DFC50214CF6041001F068FC00214FF434
:10539000545001F063FC55214FF4685001F05EFC5D
:1053A0004FF4885001F044FC782005F0B7FB4FF42F
:1053B000245001F03DFC00F0D1BFA0F51341253988
:1053C0007ED0A0F51341283900F0C581A0F5134126
:1053D000203900F0B482A0F51341313900F05C832C
:1053E000A0F5A841083900F03A84A0F5A851053984
:1053F00000F0D884A0F53541053900F0E785604517
:1054000040F0E6860021084601F028FC002108460D
:1054100001F024FC142005F065FB0021084601F092
:105420001DFC0021084601F019FC0021084601F08E
:1054300015FC0021084601F011FC0121A42001F017
:105440000DFC142005F04EFB4FF41C51602001F0C0
:1054500005FC40F60601082001F000FC40F2037153
:10546000302001F0FBFB0121312001F0F7FB04218A
:10547000322001F0F3FB4FF48171332001F0EEFB99
:105480004FF44071342001F0E9FB40F20311352064
:1054900001F0E4FB1F21362001F0E0FB40F2037134
:1054A000372001F0DBFB0121382001F0D7FB04217C
:1054B000392001F0D3FB1521902001F0CFFB00E053
:1054C00072E04FF48261102001F0C8FB40F24721E6
:1054D000112001F0C3FB4FF4DE71122001F0BEFB7E
:1054E0004FF46061132001F0B9FB782005F0FAFA5F
:1054F0004FF48071012001F0B1FB4FF400710220E4
:1055000001F0ACFB41F23001032001F0A7FB0821C0
:105510000A2001F0A3FB00210C2001F09FFB2021B9
:105520000E2001F09BFB00210F2001F097FB0021D2
:10553000202001F093FB0021212001F08FFB3D2171
:105540002A2001F08BFB142005F0CCFA2D21292014
:1055500001F084FB0021502001F080FB4DF2EF01AF
:10556000512001F07BFB0021522001F077FB40F23B
:105570003F11532001F072FB0021612001F06EFB0E
:1055800000216A2001F06AFB4FF44071922001F083
:1055900065FB0521932001F061FB4FF4807107202A
:1055A00001F05CFB00F0DABE47F6F001E52001F007
:1055B00055FB4FF48071012001F050FB4FF4E06186
:1055C000022001F04BFB41F23001032001F046FBC9
:1055D0000021042001F042FB40F20221082001F0EA
:1055E0003DFB0021092001F039FB00210A2001F0D8
:1055F00035FB00210C2001F031FB00210D2001F0D2
:105600002DFB00210F2001F029FB0021102001F0CB
:1056100025FB0721112001F021FB0021122001F0C0
:105620001DFB0021132001F019FB0021072001F0D0
:1056300015FB41F29061102001F010FB40F2272190
:10564000112001F00BFB9D21122001F007FB4FF40C
:10565000C851132001F002FB2521292001F0FEFA98
:105660000D212B2001F0FAFA0721302001F0F6FA83
:1056700040F20331312001F0F1FA0321322001F030
:10568000EDFA40F20621352001F0E8FA0821362033
:1056900001F0E4FA40F20641372001F0DFFA4FF45E
:1056A0004171382001F0DAFA0721392001F0D6FAE9
:1056B00040F202613C2001F0D1FA08213D2001F0C6
:1056C000CDFA0021502001F0C9FAEF21512001F05C
:1056D000C5FA0021522001F0C1FA40F23F115320D7
:1056E00001F0BCFA4FF42741602001F0B7FA012124
:1056F000612001F0B3FA00216A2001F0AFFA002125
:10570000802001F0ABFA0021812001F0A7FA0021EE
:10571000822001F0A3FA0021832001F09FFA0021EA
:10572000842001F09BFA0021852001F097FA1021D6
:10573000902001F093FA4FF4C061922001F08EFAAC
:1057400040F23311072001F089FA2221002001F0F4
:1057500085FA00F003BE41F28F01EC2001F07EFAE1
:1057600041F23421EF2001F079FA4FF480710120E9
:1057700001F074FA4FF4E061022001F06FFA41F297
:105780003001032001F06AFA0021042001F066FADA
:1057900040F20221082001F061FA0021092001F005
:1057A0005DFA00210A2001F059FA01210C2001F0D4
:1057B00055FA00210D2001F051FA00210F2001F0CF
:1057C0004DFA0021102001F049FA0721112001F0C3
:1057D00045FA0021122001F041FA0021132001F0C6
:1057E0003DFA0121072001F039FA322005F07AF95B
:1057F00041F29041102001F031FA40F227211120AE
:1058000001F02CFA322005F06DF98A21122001F006
:1058100025FA322005F066F94FF4D051132001F03B
:105820001DFA0621292001F019FA0D212B2001F083
:1058300015FA322005F056F90021202001F00EFA69
:105840000021212001F00AFA322005F04BF9002155
:10585000302001F003FA40F20461312001F0FEF93A
:1058600040F20531322001F0F9F90021352001F034
:10587000F5F940F60941362001F0F0F94FF40171D5
:10588000372001F0EBF940F20131382001F0E6F960
:1058900040F20771392001F0E1F900213C2001F0CC
:1058A000DDF940F60A213D2001F0D8F9322005F05B
:1058B00019F90021502001F0D1F9EF21512001F018
:1058C000CDF90021522001F0C9F940F23F115320D7
:1058D00001F0C4F94FF42741602001F0BFF9012124
:1058E000612001F0BBF900216A2001F0B7F9002125
:1058F000802001F0B3F90021812001F0AFF90021EF
:10590000822001F0ABF90021832001F0A7F90021EA
:10591000842001F0A3F90021852001F09FF91021D6
:10592000902001F09BF94FF4C061922001F096F9AC
:1059300040F23311072001F091F900F00FBD002172
:10594000084601F08BF94FF48071012001F086F9CF
:105950004FF4E061022001F081F941F230010320AF
:1059600001F07CF90021042001F078F940F20221D5
:10597000082001F073F90021092001F06FF90021DE
:105980000A2001F06BF901210C2001F067F90021D8
:105990000D2001F063F900210F2001F05FF93220A2
:1059A00005F0A0F840F20111072001F057F932206C
:1059B00005F098F84FF48651102001F04FF90721B7
:1059C000112001F04BF94FF48871122001F046F9D3
:1059D0004FF43061132001F041F90021292001F03A
:1059E0003DF944F210012B2001F038F9002150203C
:1059F00001F034F9EF21512001F030F9002152205B
:105A000001F02CF940F23F11532001F027F94FF437
:105A10001C51602001F022F90121612001F01EF9E2
:105A200000216A2001F01AF90021802001F016F906
:105A30000021812001F012F90021822001F00EF9ED
:105A40000021832001F00AF90021842001F006F9E9
:105A50000021852001F002F91021902001F0FEF8CC
:105A60000021922001F0FAF80121932001F0F6F8CC
:105A70004FF48871952001F0F1F80021972001F092
:105A8000EDF80021982001F0E9F840F273110720A9
:105A900001F0E4F800F062BC41F21401E72001F0EB
:105AA000DDF84FF48071012001F0D8F84FF4007157
:105AB000022001F0D3F841F23801032001F0CEF8C2
:105AC00040F20221082001F0C9F80021092001F06C
:105AD000C5F800210A2001F0C1F800210C2001F0D6
